:100000000C948A030C94AD090C9486090C94D409C1
:100010000C94D4090C94D4090C941E1D0C94B203B6
:100020000C94B2030C94B2030C94B2030C94B2037C
:100030000C94B2030C94B2030C94B2030C94B2036C
:100040000C943C090C94B2030C9475080C944F0862
:100050000C94B2030C94B2030C94B2030C94B2034C
:100060000C944E0A0C94B20305A84CCDB2D44EB9F0
:100070003836A9020C50B9918688083CA6AAAA2A4B
:10008000BE000000803F00407A10F35A00A0724E7C
:1000900018090010A5D4E80000E87648170000E42D
:1000A0000B54020000CA9A3B000000E1F505000075
:1000B00080969800000040420F000000A0860100DA
:1000C0000000102700000000E803000000006400AA
:1000D000000000000A000000000001000000000015
:1000E0002C76D888DC674F0823DFC1DFAE59E1B139
:1000F000B796E5E3E453C63AE651997696E8E6C248
:100100008426EB898C9B62ED407C6FFCEFBC9C9F4E
:1001100040F2BAA56FA5F490055A2AF75C936B6C70
:10012000F9676DC11BFCE0E40D47FEF520E6B50064
:10013000D0ED902E0300943577050080841E0800D2
:1001400000204E0A000000C80C333333330F986E82
:1001500012831141EF8D2114893BE65516CFFEE63F
:10016000DB18D1844B381BF77C1D901DA4BBE42405
:10017000203284725E228100C9F124ECA1E53D2782
:1001800000000000240027002A00000000080002F0
:1001900001000003040700000000000000002C32F2
:1001A00039302C3135293B002C3237302C00504C63
:1001B0002800293B00424F58462839302C3235352B
:1001C0002C3135302C3236302C00293B004349523B
:1001D00046283135302C3234352C31352C00293B32
:1001E0000043495246283132302C3233352C3235D7
:1001F0002C00293B00434952462839302C323430F8
:100200002C32302C002C34293B002C002C0043498C
:10021000524628002C3429293B002C002C002C00AD
:10022000424F58462831302C3138302C3233302C64
:100230003330302C30293B005468756E646572731E
:10024000746F726D00556E737461626C6500436CFF
:100250006F7564790053756E6E7900537461626CCA
:100260006500466F7265636173743A200020202C2C
:1002700031350020537461626C6520002046616C4A
:100280006C696E670020526973696E672000444391
:10029000563136283132302C3135352C0053656ECD
:1002A00064696E67207072657373757265200050A3
:1002B0004C28302C3134302C3234302C3134302C2A
:1002C0003135293B002520202C3135293B00444382
:1002D000563332283132302C39302C0044435631D9
:1002E000362831302C39302C48756D696469747941
:1002F0002C35293B002C37293B002C00505328007B
:100300002C3133392C30293B002C3131392C00422F
:100310004F5846280053656E64696E672068756D96
:1003200069646974792000504C28302C37302C32A5
:1003300034302C37302C3135293B0020202C3135FE
:10034000293B004443563332283132302C32302C92
:100350000044435631362831302C32302C54656DF0
:1003600070657261747572652C35293B002C3729D4
:100370003B002C00505328002C38392C30293B00EE
:100380002C35302C00424F58462800444356313615
:10039000283233302C312C202C3130293B0044437F
:1003A000563136283233302C312C772C3130293BE2
:1003B0000053656E64696E672074656D703A200045
:1003C000637C777BF26B6FC53001672BFED7AB7612
:1003D000CA82C97DFA5947F0ADD4A2AF9CA472C0BD
:1003E000B7FD9326363FF7CC34A5E5F171D831152A
:1003F00004C723C31896059A071280E2EB27B2754B
:1004000009832C1A1B6E5AA0523BD6B329E32F84C2
:1004100053D100ED20FCB15B6ACBBE394A4C58CFBA
:10042000D0EFAAFB434D338545F9027F503C9FA88E
:1004300051A3408F929D38F5BCB6DA2110FFF3D25C
:10044000CD0C13EC5F974417C4A77E3D645D197310
:1004500060814FDC222A908846EEB814DE5E0BDB0A
:10046000E0323A0A4906245CC2D3AC629195E47941
:10047000E7C8376D8DD54EA96C56F4EA657AAE089B
:10048000BA78252E1CA6B4C6E8DD741F4BBD8B8A36
:10049000703EB5664803F60E613557B986C11D9E9C
:1004A000E1F8981169D98E949B1E87E9CE5528DF13
:1004B0008CA1890DBFE6426841992D0FB054BB163F
:1004C00044435631362831302C3235302C53656E4A
:1004D000736F72206572726F722C31293B0021207C
:1004E00053656E736F72206572726F72004349526A
:1004F00046283132302C3233392C33352C33293BDA
:100500000044435631362831302C3135352C426188
:10051000726F6D657465722C35293B00444356310A
:1005200036283131352C312C772C30293B00534281
:10053000432830293B00434C522830293B002120DE
:100540004E4F5420434F4E4E454354454420544F44
:10055000204741544557415900436F6E6E6563749F
:10056000656420746F20676174657761792100424A
:1005700061726F6D6574657220284850612900486A
:10058000756D69646974792070657263656E7461F4
:1005900067650054656D70657261747572650031D0
:1005A0002E330054656D70657261747572652061DB
:1005B0006E64206D6F72650052096AD53036A538B9
:1005C000BF40A39E81F3D7FB7CE339829B2FFF873B
:1005D000348E4344C4DEE9CB547B9432A6C2233D1F
:1005E000EE4C950B42FAC34E082EA16628D924B2D0
:1005F000765BA2496D8BD12572F8F66486689816F1
:10060000D4A45CCC5D65B6926C704850FDEDB9DA4F
:100610005E154657A78D9D8490D8AB008CBCD30A3D
:10062000F7E45805B8B34506D02C1E8FCA3F0F0219
:10063000C1AFBD0301138A6B3A9111414F67DCEAE8
:1006400097F2CFCEF0B4E67396AC7422E7AD358561
:10065000E2F937E81C75DF6E47F11A711D29C5896B
:100660006FB7620EAA18BE1BFC563E4BC6D279204D
:100670009ADBC0FE78CD5AF41FDDA8338807C73156
:10068000B11210592780EC5F60517FA919B54A0D4E
:100690002DE57A9F93C99CEFA0E03B4DAE2AF5B0C3
:1006A000C8EBBB3C83539961172B047EBA77D626DF
:1006B000E169146355210C7D204D5953454E534F2C
:1006C00052535F4C4942524152595F564552534929
:1006D0004F4E2000000000002300260029000000EB
:1006E0000000250028002B00040404040404040472
:1006F00002020202020203030303030301020408CD
:10070000102040800102040810200102040810207B
:100710002D27112711241FBECFEFD8E0DEBFCDBF9C
:1007200011E0A0E0B1E0ECEEF7E602C005900D921A
:10073000A438B107D9F725E0A4E8B1E001C01D92C3
:10074000A73BB207E1F713E0C9E8D3E004C0219763
:10075000FE010E94F932C838D107C9F70E949D28CE
:100760000C94E9330C940000CF92DF92EF92FF9249
:100770000F931F93CF93DF936C017A018B01C0E03D
:10078000D0E0CE15DF0581F0D8016D918D01D60145
:10079000ED91FC910190F081E02DC6010995892B26
:1007A00011F02196EECF7E01C701DF91CF911F910D
:1007B0000F91FF90EF90DF90CF900895FC01538D43
:1007C000448D252F30E0842F90E0821B930B54172B
:1007D00010F0CF96089501970895FC01918D828DB8
:1007E000981761F0828DDF01A80FB11D5D968C9185
:1007F000928D9F5F9F73928F90E008958FEF9FEF90
:100800000895FC01918D828D981731F0828DE80F4B
:10081000F11D858D90E008958FEF9FEF0895FC0105
:10082000918D228D892F90E0805C9F4F821B9109D2
:100830008F739927089586E093E00E940F0421E0CA
:10084000892B09F420E0822F0895FC01848DDF01BB
:10085000A80FB11DA35ABF4F2C91848D90E0019633
:100860008F739927848FA689B7892C93A089B18922
:100870008C91837080648C93938D848D981306C0C3
:100880000288F389E02D80818F7D80830895EF9227
:10089000FF920F931F93CF93DF93EC0181E0888F3A
:1008A0009B8D8C8D981305C0E889F989808185FD21
:1008B00026C0F62E0B8D10E00F5F1F4F0F73112710
:1008C000E02E8C8DE8120CC00FB607FCFACFE88939
:1008D000F989808185FFF5CFCE010E942504F1CFF3
:1008E0008B8DFE01E80FF11DE35AFF4FF0829FB799
:1008F000F8940B8FEA89FB89808180620AC09FB7D8
:10090000F894EE89FF896083E889F9898081837092
:10091000806480839FBF81E090E0DF91CF911F9141
:100920000F91FF90EF900895CF93DF93EC01888DA6
:100930008823C9F0EA89FB89808185FD05C0A889E3
:10094000B9898C9186FD0FC00FB607FCF5CF808169
:1009500085FFF2CFA889B9898C9185FFEDCFCE01B3
:100960000E942504E7CFDF91CF91089580E090E0C9
:10097000892B29F00E941B0481110C94000008951A
:1009800008952091AB013091AC012817390771F41B
:100990009091AA018091A901981741F0E091AA01D4
:1009A000F0E0E153FE4F808190E008958FEF9FEFDC
:1009B000089508951F93CF93DF93DC015C968D918A
:1009C0009C915D97009739F421E030E013963C93B9
:1009D0002E9312973BC05196ED91FC9152975096F1
:1009E0002C915097322F30951FB75E964C915E97A1
:1009F000742F727041FD6095F8944081772311F057
:100A0000422B01C043234083EC012197F1F748E0DA
:100A1000508160FF02C0522B01C053235083EC0170
:100A20002197F1F76695415099F78081772319F066
:100A30008323808302C0282B20831FBF5C968D9167
:100A40009C915D970197F1F781E090E0DF91CF9164
:100A50001F9108952091AB013091AC0128173907FF
:100A600071F48091A9012091AA0190E0805C9F4FD0
:100A7000821B910960E470E00E945931089580E082
:100A800090E008952091AB013091AC01281739070F
:100A9000B9F49091AA018091A901981789F0E09189
:100AA000AA01F0E0E153FE4F80812091AA0130E0DD
:100AB0002F5F3F4F2F7333272093AA0190E00895B3
:100AC0008FEF9FEF08950E94C5338F929F92AF9250
:100AD000BF92CF92DF92EF92FF9291E090939502B6
:100AE00096E79093B702109296021092B802682F80
:100AF00083EA93E00E94AA1D0E94E82283E090E02E
:100B00000E949F228091E00290E02091E102821BEE
:100B1000910983309105ECF383EA93E00E94611D13
:100B20004C01990FAA08BB08BA2CA92C982C882430
:100B300083EA93E00E94611D6C01990FEE08FF08A3
:100B4000C828D928EA28FB28FE2CED2CDC2CCC2444
:100B500083EA93E00E94611D092E000CAA0BBB0BD7
:100B6000BC01CD016C297D298E299F29FF90EF9032
:100B7000DF90CF90BF90AF909F908F9008958F920D
:100B80009F92AF92BF92CF92DF92EF92FF928AEF45
:100B90000E946505E0E7F2E020813181C72ED82E62
:100BA000E92EFF24E7FCFA94C21AD30AE108F108FF
:100BB000DC01CB0157E0B595A795979587955A9598
:100BC000D1F7220F331F4C015D01821A930AA1084D
:100BD000B108A5019401A281B3810E948F314B011C
:100BE0005C017BE0B594A794979487947A95D1F7AC
:100BF000A7019601C701B6010E943D319B01AC01DE
:100C0000ACE05595479537952795AA95D1F7A481DE
:100C1000B5810E948F31DC01CB012EE0B595A795FF
:100C2000979587952A95D1F7A5019401280F391F2B
:100C30004A1F5B1F21A332A343A354A3A5E0B0E046
:100C40000E94F92EDC01CB0180589F4FAF4FBF4F60
:100C5000692F7A2F8B2F992787FD9A950E94AA2DAD
:100C600020E030E048EC52E40E94BC2FFF90EF906F
:100C7000DF90CF90BF90AF909F908F900895FC0130
:100C8000448155816081718183E394E00C94B403C5
:100C9000FC01808191810C942E2AEF92FF920F9398
:100CA0001F93CF93DF93EC017B01888199816115BC
:100CB000710519F1FB0101900020E9F731978F01CF
:100CC000061B170B009729F02A813B81201731075B
:100CD000F8F4B8016F5F7F4F0E94FF32009759F020
:100CE000998388831B830A832C813D81232B81F484
:100CF000FC0110820DC088819981009711F00E943B
:100D00002E2A198218821D821C821B821A8207C019
:100D10001D830C83B701888199810E94D333CE0152
:100D2000DF91CF911F910F91FF90EF9008950F9356
:100D30001F93CF93DF93CDB7DEB762970FB6F894CA
:100D4000DEBF0FBECDBF8C01CB01F8011182108236
:100D500013821282158214824AE0BE016F5F7F4FB8
:100D60000E941F2BBE016F5F7F4FC8010E944D067E
:100D700062960FB6F894DEBF0FBECDBFDF91CF9164
:100D80001F910F9108950F931F93CF93DF93CDB7CA
:100D9000DEB729970FB6F894DEBF0FBECDBF8C012A
:100DA000862FF8011182108213821282158214821A
:100DB0004AE0BE016F5F7F4F90E00E94472BBE016B
:100DC0006F5F7F4FC8010E944D0629960FB6F894B9
:100DD000DEBF0FBECDBFDF91CF911F910F91089560
:100DE000EF92FF920F931F93CF93DF938C017B01C0
:100DF000C0E0D0E0F701EC0FFD1F6491662361F0C5
:100E0000D801ED91FC910190F081E02DC801099588
:100E1000892B11F02196EECFCE01DF91CF911F915A
:100E20000F91FF90EF9008956115710579F0FB0126
:100E300001900020E9F73197AF01461B570BDC0109
:100E4000ED91FC910280F381E02D099480E090E027
:100E500008958F929F92AF92BF920F931F93CF935B
:100E6000DF93CDB7DEB7A1970FB6F894DEBF0FBE04
:100E7000CDBF19A2423008F44AE08E010F5D1F4F2A
:100E8000842E912CA12CB12CA50194010E946D31CE
:100E9000E62FB901CA0101501109EA3014F4E05DEE
:100EA00001C0E95CD801EC93232B242B252B61F79F
:100EB000B80186E093E00E941407A1960FB6F8945B
:100EC000DEBF0FBECDBFDF91CF911F910F91BF90BD
:100ED000AF909F908F9008954F925F926F927F9204
:100EE0008F929F92AF92BF92CF92DF92EF92FF923A
:100EF0006B017C019B01AC010E94D430882319F066
:100F000065E671E01AC046015701E894B7F82FEF83
:100F10003FEF4FE75FE7C501B4010E94D430811174
:100F200012C02FEF3FEF4FE75FE7C501B4010E940A
:100F3000A32D181644F469E671E086E093E00E9460
:100F400014077C0183C02FEF3FEF4FE75FE4C70139
:100F5000B6010E94A33018161CF46DE671E0EDCFC7
:100F60002FEF3FEF4FE75FECC701B6010E94A32DC3
:100F700087FDF3CF20E030E0A901C701B6010E9450
:100F8000A32D87FF0BC06DE286E093E00E9447042B
:100F90005C01F7FAF094F7F8F09402C0A12CB12CA0
:100FA0002AE037ED43EA5BE3C701B6010E944B2F0D
:100FB0002B013C010E9435306B017C010E94A82D61
:100FC0009B01AC01C301B2010E944A2F2B013C01DD
:100FD0004AE0C701B6010E9429077C01EA0CFB1C0C
:100FE0006EE286E093E00E944704E80EF91E20E0DE
:100FF00030E040E251E4C301B2010E94092E2B010E
:101000003C010E9435304B01A12CB12C4AE0C501B6
:10101000B4010E942907E80EF91EC501B4010E941F
:10102000A82D9B01AC01C301B2010E944A2F20E010
:1010300030E040E251E40E94092E0E94353080E009
:1010400090E04AE00E942907E80EF91E61E771E08E
:1010500086E093E00E9414078E0D9F1DFF90EF9095
:10106000DF90CF90BF90AF909F908F907F906F90C8
:101070005F904F9008950F931F93CF93DF93EC01F0
:101080000E94F0068C0161E771E0CE010E94140716
:10109000800F911FDF91CF911F910F9108951F92A3
:1010A0000F920FB60F9211242F933F934F935F939C
:1010B0006F937F938F939F93AF93BF93EF93FF9320
:1010C00086E093E00E942504FF91EF91BF91AF91DC
:1010D0009F918F917F916F915F914F913F912F9150
:1010E0000F900FBE0F901F9018951F920F920FB682
:1010F0000F9211242F938F939F93EF93FF93E0917F
:101100001603F09117038081E0911C03F0911D03F9
:1011100082FD12C0908180911F038F5F8F73209199
:101120002003821751F0E0911F03F0E0EA5FFC4FCB
:10113000958F80931F0301C08081FF91EF919F9154
:101140008F912F910F900FBE0F901F90189590E0E8
:10115000FC01E657FE4F2491FC01E450F94F349115
:10116000FC01E851F94FE491EE2309F43CC022233D
:1011700039F1233091F038F42130A9F0223001F513
:1011800084B58F7D12C0273091F02830A1F0243033
:10119000B9F4809180008F7D03C0809180008F77AB
:1011A000809380000DC084B58F7784BD09C0809185
:1011B000B0008F7703C08091B0008F7D8093B00026
:1011C000F0E0EE0FFF1FE252F94FA591B4919FB7E7
:1011D000F894611104C08C913095382302C0EC91D1
:1011E0003E2B3C939FBF0895CF93DF9390E0FC018B
:1011F000E450F94F2491FC01E851F94F8491882380
:1012000061F190E0880F991FFC01E058FE4FC591F5
:10121000D491FC01E252F94FA591B491611109C03A
:101220009FB7F8948881209582238883EC912E23A0
:101230000BC0623061F49FB7F8948881322F3095EB
:1012400083238883EC912E2B2C939FBF06C08FB7EE
:10125000F894E8812E2B28838FBFDF91CF910895DA
:101260002FB7F894609110027091110280911202D0
:10127000909113022FBF08951F920F920FB60F92F5
:1012800011242F933F938F939F93AF93BF9380919C
:10129000100290911102A0911202B09113023091AC
:1012A0000F0223E0230F2D3720F40196A11DB11D5D
:1012B00005C026E8230F0296A11DB11D20930F0241
:1012C0008093100290931102A0931202B093130224
:1012D0008091140290911502A0911602B09117020C
:1012E0000196A11DB11D8093140290931502A09345
:1012F0001602B0931702BF91AF919F918F913F91CA
:101300002F910F900FBE0F901F9018951F920F9264
:101310000FB60F9211242F933F934F935F936F93C8
:101320007F938F939F93AF93BF93EF93FF93E0913E
:101330000201F09103010995FF91EF91BF91AF91E7
:101340009F918F917F916F915F914F913F912F91DD
:101350000F900FBE0F901F9018951F920F920FB60F
:101360000F9211242F933F934F935F936F937F932B
:101370008F939F93AF93BF93EF93FF93E0910001FF
:10138000F09101010995FF91EF91BF91AF919F916C
:101390008F917F916F915F914F913F912F910F901E
:1013A0000FBE0F901F9018951F920F920FB60F92BD
:1013B00011242F933F934F935F936F937F938F935A
:1013C0009F93AF93BF93EF93FF93E091AB01F091A5
:1013D000AC01309709F451C0968DA685B7858585F7
:1013E00091FF04C09C91892329F447C09C918923D3
:1013F00009F043C0A389B4899C918589809589238C
:101400008C93868997890197F1F7608D718DA685F8
:10141000B785558538E020E0CB010197F1F7822FA1
:1014200090E095958795282F4C91452309F02068E9
:10143000315091F7868D81FD20958091A90190E032
:1014400001968F7399273091AA01381749F0A0911E
:10145000A901B0E0A153BE4F2C938093A90103C012
:10146000868D8160868F828D938D0197F1F7A38998
:10147000B4899C918589892B8C93FF91EF91BF91C1
:10148000AF919F918F917F916F915F914F913F911C
:101490002F910F900FBE0F901F9018951F920F92D3
:1014A0000FB60F9211242F933F934F935F936F9337
:1014B0007F938F939F93AF93BF93EF93FF9380910D
:1014C000B900887F803609F49CC068F5883209F439
:1014D0005BC090F4803109F454C038F4882309F4D7
:1014E000F6C0883009F44DC0F6C0883109F44CC00C
:1014F000803209F45DC0EFC0803409F468C048F45C
:10150000803309F455C0883309F0E5C08093DD02CB
:10151000D8C0803509F44FC0883509F45DC08834DF
:1015200009F0D9C0D6C0883909F4C7C0A8F48837F3
:1015300009F467C038F4883609F463C0803709F4C9
:1015400060C0C9C0883809F4B8C0803909F45FC0E8
:10155000803809F0C0C05BC0803B09F486C038F415
:10156000803A09F466C0883A09F47FC0B4C0803C70
:1015700009F4A7C0883C09F4A4C0883B09F48AC0D8
:10158000AAC08091DA0210C09091DC028091DB0247
:10159000981770F5E091DC0281E08E0F8093DC02F9
:1015A000F0E0E754FD4F80818093BB0085EC86C05E
:1015B0008093DD028EC0E091DC0281E08E0F80938B
:1015C000DC028091BB00F0E0E754FD4F80839091F6
:1015D000DC028091DB026EC0E091DC0281E08E0FC4
:1015E0008093DC028091BB00F0E0E754FD4F8083E4
:1015F0008091DE0281116DC081E08093D90284EA7E
:1016000061C083E08093DF021092CE01CFCF809142
:10161000CE01803208F051C0E091CE0181E08E0F02
:101620008093CE018091BB00F0E0E255FE4F8083B5
:10163000BDCF85EC8093BC001092DF028091CE017B
:10164000803230F4E091CE01F0E0E255FE4F10829E
:101650006091CE0170E0E091A701F091A8018EEABF
:1016600091E009951092CE0136C084E08093DF02AC
:101670001092AD011092A601E091A401F091A50194
:1016800009958091A601811105C081E08093A60192
:1016900010928401E091AD0181E08E0F8093AD0145
:1016A000F0E0EC57FE4F80818093BB009091AD013C
:1016B0008091A601981708F479CF85E88093BC0043
:1016C0000AC085EC8093BC001092DF0204C0109227
:1016D000DD020E94DD1DFF91EF91BF91AF919F91BF
:1016E0008F917F916F915F914F913F912F910F90CB
:1016F0000FBE0F901F901895FC01962F809102034A
:1017000081836481607F262F216088E0989FB001EB
:101710001124622B64838091600280FF03C0CF019B
:101720000C944B1980E008952F923F924F925F9254
:101730006F927F928F929F92AF92BF92CF92DF92E1
:10174000EF92FF920F931F93CF93DF93CDB7DEB746
:10175000C554D1090FB6F894DEBF0FBECDBF0E94AD
:101760003009009126021091270220912802309121
:101770002902DC01CB01801B910BA20BB30B883E2D
:101780009340A105B10510F40C9465140E94300932
:101790006093260270932702809328029093290277
:1017A000809106018C3318F01092060103C08F5F00
:1017B00080930601A89580910601811120C10E94A5
:1017C000BF056093220270932302809324029093BA
:1017D000250220915F02222311F40C94491461EB3D
:1017E00073E086E093E00E94F0066091220270911F
:1017F000230280912402909125020E946C07C090E0
:101800002202D0902302E0902402F09025028091E1
:101810001504877088628093150480911604806E89
:1018200080931604C0921904D0921A04E0921B040B
:10183000F0921C0411E010931D0460E082E194E03A
:101840000E947C0B80911504877088628093150438
:1018500080911604806E80931604C0921904D09271
:101860001A04E0921B04F0921C0410931D0461E022
:1018700082E194E00E947C0B882319F06EE973E00A
:1018800002C06BE873E083E394E00E94F00620E07E
:1018900030E040E05FE3609122027091230280918A
:1018A0002402909125020E94092E0E94A8306B010B
:1018B0007C0180912102863008F46AC065E873E0FB
:1018C00083E394E00E94F0066091210270E06C5F77
:1018D0007F4FCE0101960E949706CE0101960E948D
:1018E0003F06CE0101960E94480660E873E083E35C
:1018F00094E00E94F0066091210270E0625F7F4FE9
:10190000CE0101960E949706CE0101960E943F06E5
:10191000CE0101960E94480668E773E083E394E0F5
:101920000E94F00664E773E083E394E00E94F0060F
:101930006091210270E06C5F7F4FCE0101960E94A2
:101940009706CE0101960E943F06CE0101960E94A5
:10195000480662E773E083E394E00E94F006C70163
:10196000B6010E942E3086E4861B682FCE010196B8
:101970000E94C306CE0101960E943F06CE01019649
:101980000E9448066DE673E083E394E00E94F0064F
:1019900061E573E083E394E00E94F00663E473E0A2
:1019A00083E394E00E94F00660912202709123028A
:1019B00080912402909125021BA21AA21DA21CA2B2
:1019C0001FA21EA28E010F5F1F4F22E044E00E9463
:1019D0007629BC01CE0182960E944D06CE018296E8
:1019E0000E943F06CE0182960E9448066BE373E098
:1019F00083E394E00E94F00667E273E0BDC38130A8
:101A000009F094C10E94BF058DEF0E94442380908D
:101A1000910290909202A0909302B09094023CE2C6
:101A2000931A31E0A30AB1086C01E12CF12C3EE0DD
:101A3000CC0CDD1CEE1CFF1C3A95D1F780918C027A
:101A400090918D02092E000CAA0BBB0B44E1880F6C
:101A5000991FAA1FBB1F4A95D1F7C81AD90AEA0ACB
:101A6000FB0AA0918E02B0918F02A50194010E9401
:101A70008F31C61AD70AE80AF90A40E4D40EE11CED
:101A8000F11C5FE0F594E794D794C7945A95D1F789
:101A9000A0918B02B0E0A50194010E94F92E2B01C8
:101AA0003C016BE075946794579447946A95D1F71D
:101AB00050E8550E611C711CA09190020A2E000C7A
:101AC000BB0BA50194010E948F31EAE095958795A3
:101AD00077956795EA95D1F7A30192010E943D3170
:101AE000DC01CB01FAE0B595A79597958795FA9516
:101AF000D1F79C01AD01405E5F4FA0918902B0918A
:101B00008A020E948F31DC01CB01905EAF4FBF4F44
:101B1000BC01CD01AEE09595879577956795AA951F
:101B2000D1F7A70196010E943D316B017C01BFE016
:101B30009595879577956795BA95D1F79B01AC01F7
:101B40000E943D319B01AC0117E0559547953795B3
:101B500027951A95D1F7A0918802B0E00E94F92E3E
:101B6000DC01CB0104E0B595A795979587950A957B
:101B7000D1F7A7019601281B390B4A0B5B0BDA0141
:101B8000C90157FF03C080E090E0DC01813091057E
:101B9000A10539E1B30724F080E090E0A0E0B9E1CD
:101BA000BC01CD012CE095958795779567952A9591
:101BB000D1F70E94A82D20E030E040E85AE30E94CF
:101BC000092E0E9435306093200265E173E086E0C3
:101BD00093E00E94F0066091200270E080E090E0C7
:101BE0004AE00E94290761E771E086E093E00E94E5
:101BF00014076091200281EF93E00E94931860E047
:101C00000E947C0B80912102863008F46CC06FE04A
:101C100073E083E394E00E94F0066091210270E09B
:101C20006C5F7F4FCE0101960E949706CE01019610
:101C30000E943F06CE0101960E94480669E073E0CB
:101C400083E394E00E94F0066091210270E0625FFD
:101C50007F4FCE0101960E949706CE0101960E9409
:101C60003F06CE0101960E94480660E073E083E3E0
:101C700094E00E94F0066CEF72E083E394E00E942F
:101C8000F0066091210270E06C5F7F4FCE010196FB
:101C90000E949706CE0101960E943F06CE01019652
:101CA0000E9448066AEF72E083E394E00E94F00627
:101CB0008091200265E00E944D316BE870E0681B66
:101CC0007109CE0101960E949706CE0101960E94ED
:101CD0003F06CE0101960E94480665EF72E083E35D
:101CE00094E00E94F0066CED72E083E394E00E94C1
:101CF000F0066EEC72E083E394E00E94F0066091DF
:101D00002002CE0101960E94C306CE0101960E94D8
:101D10003F06CE0101960E94480665EC72E083E31F
:101D200094E00E94F0066FEA72E026C2823009F069
:101D300028C20E94BF0587EF0E94650526966CAFFA
:101D40007DAF8EAF9FAF26978091910290919202C6
:101D5000A0919302B09194026C017D01FF0CCC081C
:101D6000DC2C76019C01AD016C2D7C2D8C2D9C2DE5
:101D7000345F41405109610971098109910928A71E
:101D80003AA74EA758AB69AB7AAB8BAB9CAB59016A
:101D90006A017B018C010E9497312DAB3EAB4FABAA
:101DA0005DAF6EAF7FAF21968FAF219722969FAF29
:101DB00022973091790220917802932F990F990BF5
:101DC000492F592F692F792F892F0E9497310CE0C5
:101DD0000E949032722E832E942E652E562E472E00
:101DE000382E292E30917B0220917A02932F990F61
:101DF000990BADA8BEA8CFA8DDACEEACFFAC219688
:101E00000FAD219722961FAD2297492F592F692F89
:101E1000792F892F0E94973108E00E94A932A72CC0
:101E2000B82CC92CD62CE52CF42C032D122D0E9495
:101E3000C73270588F4F9F4F2090760230907702B4
:101E40005101C12CD12CE12CF12C00E010E00E94BA
:101E5000973101E20E94A93228AF39AF4AAF5BAF98
:101E60006CAF272E382E492EA0E00E94D93209F4FB
:101E70001DC13091810220918002932F990F990BFF
:101E8000ADA8BEA8CFA8DDACEEACFFAC21960FADDF
:101E9000219722961FAD2297492F592F692F792F0D
:101EA000892F0E9497312DAB3EAB4FAB552E3B0196
:101EB0004C0130917F0220917E02932F990F990B54
:101EC000A8A4BAA4CEA4D8A8E9A8FAA80BA91CA9CA
:101ED000492F592F692F792F892F0E94973101E1BE
:101EE0000E949032ADA8BEA8CFA8D52C7301840162
:101EF0000E94C73259016A017B01182F592E26967C
:101F00004CAD5DAD6EAD7FAD2697E4E07595679500
:101F100057954795EA95D1F780E090E0A0E1B0E0D1
:101F2000841B950BA60BB70B3C014D01990C660861
:101F3000762C43019C01AD01662D762D862D962DC4
:101F40000FE10E94903239014A01B62FA72FF82FD6
:101F5000E92F30917D0220917C02932F990F990BEC
:101F6000492F592F692F792F892F03E20E94903230
:101F7000012F152D0E94C73259016A017B018C0186
:101F80009301A4016B2F7A2F8F2F9E2F0E94D032A6
:101F9000A5E3AA2EBCE0BB2EC12CD12CE12CF12C48
:101FA00000E010E00E949731A8ACB9ACCAACDBAC41
:101FB000ECACF22C032D142D0E94F23128A73AA785
:101FC0004EA758AB69AB7AAB8BAB9CAB0DE00E94D4
:101FD000A932922E832E742E652E562E472E382E21
:101FE000292E3091870220918602932F990F990B09
:101FF000A92CB82CC72CD62CE52CF42C032D122D93
:10200000492F592F692F792F892F0E9497310E94CC
:10201000973109E10E94A932A8A4BAA4CEA4D8A8F5
:10202000E9A8FAA80BA91CA90E94C73219012A0124
:102030003B014C013091850220918402932F990F2E
:10204000990B492F592F692F792F892F0E9497318A
:1020500003E10E94A93259016A017B018C019101BF
:10206000A201B301C4010E94C73208E00E94A93254
:1020700059016A017B01E82F192F309183022091C9
:102080008202932F990F990B492F592F692F792F7E
:10209000892F04E00E9490320E2F0E94C73249011E
:1020A0005A0199278B2D7A2D692D03C060E070E0CD
:1020B000CB0124E630E040E050E00E946D31CA01DF
:1020C000B9010E94A82D6B017C016DE972E086E0E8
:1020D00093E00E94F006C701B6010E946C07809150
:1020E000D303877088628093D3038091D403806E7A
:1020F0008093D403C092D703D092D803E092D9033F
:10210000F092DA0381E08093DB0360E080ED93E0FE
:102110000E947C0B6EE872E083E394E00E94F0067C
:10212000C701B6010E94A8300E942E30CE01019650
:102130000E949706CE0101960E943F06CE010196AD
:102140000E94480680910501982F9D7F913019F4D7
:1021500065E872E00BC0823011F0843019F46CE74E
:1021600072E004C0811106C063E772E083E394E08B
:102170000E94F0066DE672E083E394E00E943B0863
:10218000A4C3833009F0A1C320912102822F65E00E
:102190000E944D3144E0949FF0011124E55BFD4F16
:1021A00010821182128213822F5F2A3B18F420932F
:1021B000210203C086E080932102809121028530B4
:1021C00059F40E94BF2160931C0270931D028093FA
:1021D0001E0290931F02EBC08332E1F40E94BF21E4
:1021E00020911C0230911D0240911E0250911F024D
:1021F0000E944A2F2DEC3CEC4CEC5DE30E94092E32
:1022000020910401222309F43FC09B01AC010E94EC
:102210004B2F8EC08134F9F40E94BF2120911C0203
:1022200030911D0240911E0250911F020E944A2FC0
:102230002DEC3CEC4CEC5DE30E94092E6B017C0123
:10224000809104018111B7C020E030E040E05FE3FD
:10225000C701B60142C08F35E1F40E94BF21209131
:102260001C0230911D0240911E0250911F020E94DB
:102270004A2F2DEC3CEC4CEC5DE30E94092E2091A2
:102280000401222309F449C020E030E040EC5FE380
:102290004DC08D3751F50E94BF2160931802709395
:1022A000190280931A0290931B0220911C02309114
:1022B0001D0240911E0250911F020E944A2F2DECD8
:1022C0003CEC4CEC5DE30E94092E2091040122239A
:1022D00039F020E030E040E05FE30E94092E28C0A2
:1022E00020E030E040E450E421C08B3921F50E9429
:1022F000BF2120911C0230911D0240911E0250917D
:102300001F020E944A2F2DEC3CEC4CEC5DE30E9436
:10231000092E20910401222329F020E030E040E240
:1023200050E404C020E030E040E650E40E94BC2FBE
:102330006B017C0140C0893BC1F50E94BF21209107
:102340001C0230911D0240911E0250911F020E94FA
:102350004A2F2DEC3CEC4CEC5DE30E94092E2091C1
:102360000401222339F020E030E040E450E40E94F0
:10237000BC2F06C020E030E040E85EE30E94092E5A
:102380006B017C018091180290911902A0911A02B0
:10239000B0911B0280931C0290931D02A0931E0219
:1023A000B0931F021092040106C0833220F4809182
:1023B0000401811151C020E030E040E85EEBC7012C
:1023C000B6010E94A32D87FD49C020E030E040E81F
:1023D0005EE3C701B6010E94A33018160CF440C09A
:1023E00020E030E040E85EEBC701B6010E94A33078
:1023F000181654F42DEC3CEC4CE45DEBC701B6012F
:102400000E94A32D87FD2EC02DEC3CEC4CE45DE337
:10241000C701B6010E94A330181654F420E030E042
:1024200040E85EE3C701B6010E94A32D87FD1CC0F2
:102430002DEC3CEC4CE45DEBC701B6010E94A330EF
:10244000181654F42DEC3CEC4CE45DE3C701B601E6
:102450000E94A32D87FD0AC085E009C084E007C063
:1024600083E005C082E003C081E001C080E080938A
:10247000050162E672E086E093E00E94F00660915A
:10248000050170E080E090E04AE00E94290761E7E2
:1024900071E086E093E00E941407809105018111AC
:1024A0000BC06BE572E08FEA93E00E949F1860E03A
:1024B0000E947C0B1FE001C017E080910501813074
:1024C00061F465E572E08FEA93E00E949F1860E096
:1024D0000E947C0B62E3B62E02C05EE1B52E8091B5
:1024E0000501823049F46EE472E08FEA93E00E94C5
:1024F0009F1860E00E947C0B80910501833071F48D
:1025000065E472E08FEA93E00E949F1860E00E9409
:102510007C0B4CEDE42EF12C0AE504C030EFE32EE9
:10252000F12C08E780910501843051F468E372E0F2
:102530008FEA93E00E949F1860E00E947C0B11E0FC
:1025400060E272E083E394E00E94F006809105016E
:10255000823018F0833009F0E5C02FE0C22ED12C74
:10256000412C512C32012B2C312CC101032C000C9D
:10257000AA0BBB0B8AA79BA7ACA7BDA7A02FB0E057
:10258000BFA7AEA76AA57BA58CA59DA50E94AA2D75
:102590004B015C01C301B2010E94B72F9B01AC014A
:1025A000C501B4010E94092E0E94A8300E942E305D
:1025B0002EA53FA5260F371F39A728A7C301B201B3
:1025C0000E94CC309B01AC01C501B4010E94092ED0
:1025D0000E94A8300E942E305701A60EB71E64E755
:1025E00071E083E394E00E941407602FCE0101960E
:1025F0000E94C306CE0101960E943F06CE010196BD
:102600000E9448066EE172E083E394E00E94F006C7
:10261000B701CE0101960E949706CE0101960E9455
:102620003F06CE0101960E9448066CE172E083E30A
:1026300094E00E94F00668A579A5CE0101960E945B
:102640009706CE0101960E943F06CE0101960E9498
:1026500048066AE172E083E394E00E94F006B50167
:10266000CE0101960E949706CE0101960E943F0678
:10267000CE0101960E94480664E172E083E394E093
:102680000E94F0062DEC3CEC4CEC5EE3C301B20181
:102690000E944B2F2B013C0131E0C31AD10809F0F5
:1026A00071CF6EE072E083E394E00E94F006602F49
:1026B000CE0101960E94C306CE0101960E943F06FC
:1026C000CE0101960E9448066CE072E083E394E03C
:1026D0000E94F006B701CE0101960E949706CE0136
:1026E00001960E943F06CE0101960E9448066AE0CC
:1026F00072E083E394E00E94F006B1016A50710930
:10270000CE0101960E949706CE0101960E943F06D7
:10271000CE0101960E94480665E072E083E394E0F2
:102720000E94F006809105018250833008F064C059
:1027300065EF71E083E394E00E94F006612FCE0123
:1027400001960E94C306CE0101960E943F06CE016B
:1027500001960E94480662EF71E083E394E00E94D4
:10276000F00661EE71E083E394E00E94F006612FD1
:10277000CE0101960E94C306CE0101960E943F063B
:10278000CE0101960E9448066EED71E083E394E06D
:102790000E94F0066DEC71E083E394E00E94F00685
:1027A000612FCE0101960E94C306CE0101960E94C0
:1027B0003F06CE0101960E9448066AEC71E083E371
:1027C00094E00E94F00665EB71E083E394E00E94E0
:1027D000F006612FCE0101960E94C306CE0101963C
:1027E0000E943F06CE0101960E94480662EB71E00E
:1027F00083E394E00E94F00680910501823049F065
:10280000843049F061E771E083E394E00E941407AB
:102810005CC08AE001C085E02AE030E07901E81A76
:10282000F108EE0CFF1C1AE505E0080F6EEA71E0F6
:1028300083E394E00E94F006612FCE0101960E948E
:10284000C306CE0101960E943F06CE0101960E946A
:10285000480668EA71E083E394E00E94F006612F85
:1028600070E06E197F09CE0101960E949706CE0195
:1028700001960E943F06CE0101960E9448066EE92D
:1028800071E083E394E00E94F006100F173970F2B4
:10289000B9CF20E030E040E151E40E94092E20E071
:1028A00030E040EA50E40E94BC2F20E030E040E0FD
:1028B00052E40E944B2F6093220270932302809374
:1028C0002402909325020C94EF0BCB5BDF4F0FB6E5
:1028D000F894DEBF0FBECDBFDF91CF911F910F9156
:1028E000FF90EF90DF90CF90BF90AF909F908F9030
:1028F0007F906F905F904F903F902F9008958F92B0
:102900009F92AF92BF92CF92DF92EF92FF924B01D4
:102910005C010E9430096B017C010E943009DC01DE
:10292000CB018C199D09AE09BF0988159905AA0527
:10293000BB0530F4A8950E94BA190E940D19EDCF7D
:10294000FF90EF90DF90CF90BF90AF909F908F90CF
:102950000895CF932FE043E06FEF80E00E94D921EC
:1029600063E771E00E94D718E2E5F4E083818770A5
:102970008061838384818F71806C848381E087830D
:102980001086CF010E944B198FE00E94672221E13F
:1029900040E06FEF80E00E94D92168E771E00E947B
:1029A000D7180E944B19C091030326E043E06FEF54
:1029B00080E00E94D9216C2F0E9493180E944B192D
:1029C00086E00E946722CF910C945219CF930E9407
:1029D000E82180916B0282FF03C069E575E002C0C7
:1029E0006EE375E086E093E00E943B0810924E048F
:1029F00010924D0410924C0410924B0410924A0411
:102A0000109249048FE190E09093500480934F041A
:102A100090913F04963108F058C021E030E03093A7
:102A20004A04209349042DE130E030934C04209374
:102A30004B042DE030E030934E0420934D04409140
:102A40006800983058F031E09E3008F430E021E022
:102A5000822F01C0880F3A95EAF701C084E0842BE9
:102A600080936800983038F09E3040F0963148F0FE
:102A700020E030E008C02DE630E005C02BE630E075
:102A800002C02CE630E0309347042093460498308F
:102A900030F481E001C0880F9A95EAF70EC0292F23
:102AA00030E09E3018F42850310902C02E50310910
:102AB00081E001C0880F2A95EAF78093480480914D
:102AC0004F04909150040197F1F780914D0490913B
:102AD0004E04892B49F1E091AB01F091AC0184E007
:102AE000E333F80709F1309739F0A389B4899C9151
:102AF0008589809589238C93809151048E7F809362
:102B000051041092A9011092AA0183E394E09093DA
:102B1000AC018093AB01E0914604F09147049081B1
:102B200080914804892B80836CED75E080E090E013
:102B30000E947F1466E375E083E394E00E94F00650
:102B40006EE275E083E394E00E94F00680916B02F0
:102B500082FF06C06CE175E083E394E00E94F0061A
:102B600061E075E083E394E00E94F0066DEE74E0AE
:102B700083E394E00E94F00660E971E080E090E079
:102B80000E947F141092E1021092E00210929602CD
:102B90001092B8021092DF0281E08093DE02109260
:102BA000D90261E082E10E94A70861E083E10E940E
:102BB000A7088091B9008E7F8093B9008091B900F9
:102BC0008D7F8093B90088E48093B80085E480937A
:102BD000BC0080E59DE19093A5018093A40181E56F
:102BE0009DE19093A8018093A70180ED0E947F232F
:102BF000803609F0A1C088E80E9479239093710281
:102C0000809370028AE80E947923909373028093E4
:102C100072028CE80E94792390937502809374026B
:102C20008EE80E947923909377028093760280E960
:102C30000E947923909379028093780282E90E941E
:102C4000792390937B0280937A0284E90E9479230E
:102C500090937D0280937C0286E90E947923909371
:102C60007F0280937E0288E90E94792390938102FB
:102C7000809380028AE90E94792390938302809353
:102C800082028CE90E9479239093850280938402CA
:102C90008EE90E947923909387028093860281EACD
:102CA0000E947F238093880281EE0E947923909373
:102CB0008A028093890283EE0E947F2380938B0295
:102CC00084EE0E947F23C82F85EE0E947F2390E12F
:102CD000C99F900111248F70282B30938D0220936F
:102CE0008C0286EE0E947F23C82F85EE0E947F23F0
:102CF00090E1C99F9001112482958F70282B309309
:102D00008F0220938E0287EE0E947F238093900291
:102D100065E082EF0E949F2367EB84EF0E949F2370
:102D20009FE088E10FB6F894A895809360000FBEED
:102D300090936000CF9108956EED74E086E093E08B
:102D40000E943B0860EC74E083E394E00E943B083F
:102D5000E7CF3F924F925F926F927F928F929F92B6
:102D6000AF92BF92CF92DF92EF92FF920F931F9399
:102D7000CF93DF93CDB7DEB7A0970FB6F894DEBF41
:102D80000FBECDBF982E80910203FB01808313817B
:102D900012FD05C0169516951695195F01C010E233
:102DA000009105030170113208F010E2412F50E04C
:102DB0008AE292E00E94CA3310928E0510928F052B
:102DC0001092900510929105109292051092930521
:102DD0001092940510929505109296051092970501
:102DE000109298051092990510929A0510929B05E1
:102DF00010929C0510929D051092860510928705F1
:102E0000109288051092890510928A0510928B0500
:102E100010928C0510928D05113118F060E2762E1B
:102E200002C050E1752EC72CC2943FE0C322D12CC2
:102E30004AE2A42E42E0B42E7E01F1E1EF0EF11C35
:102E40001BE1C114D10409F410C1B5018EE895E06D
:102E50000E942B1B8091940490919504892B09F476
:102E600004C146E954E06EE875E0C7010E94041B06
:102E700088248394482D50E0809194049091950487
:102E8000481759070CF074C0A701DE0111969FE0A6
:102E9000592E2AE0622E75E0F701E70FF11D8081BF
:102EA0007C5F7F70F701E60DF11D308194E0960D97
:102EB0009F70692EF701E50DF11D208194E0950DBD
:102EC0009F70592EFA019081E92FF0E0E054FC4FF9
:102ED0006491E82FF0E0E054FC4F9491E32FF0E090
:102EE000E054FC4F3491E22FF0E0E054FC4F249189
:102EF000462E440C67FD4126892F880F97FD8127B8
:102F0000E32FEE0F37FDE127F22FFF0F27FDF1270B
:102F1000392E33263226342438263C92362E332658
:102F2000322683258E2711968C9311979627292771
:102F30002E272F2712962C931297932794259F279D
:102F400013969C9313974C5F5F4F1496EA16FB06FB
:102F500009F0A2CFF0E18F9EA00111244A565B4FE9
:102F6000BE016F5F7F4FC7010E94041B839482CF15
:102F7000E989F0E0E054FC4FE491E98BED89F0E061
:102F8000E054FC4FE491ED8BE98DF0E0E054FC4F10
:102F9000E491E98FED8DF0E0E054FC4FE491ED8F8A
:102FA0008A89EE89F0E0E054FC4FE491EA8BEA8DE7
:102FB000F0E0E054FC4FE491EE8BEE8DF0E0E05455
:102FC000FC4FE491EA8FE82FF0E0E054FC4FE491ED
:102FD000EE8F8B89EB8DF0E0E054FC4FE491EB8BAE
:102FE000E82FF0E0E054FC4FE491EB8F8F89EF8DF8
:102FF000F0E0E054FC4FE491EF8BE82FF0E0E05478
:10300000FC4FE491EF8F88A1EC8DF0E0E054FC4F91
:10301000E491E8A3E88DF0E0E054FC4FE491EC8FFC
:10302000EC89F0E0E054FC4FE491E88FE82FF0E009
:10303000E054FC4FE491EC8B84E0440F551F8A95DB
:10304000E1F74A565B4FB7018EE895E00E94041BFA
:1030500040E16EE875E0C5010E94102280E1A80EF3
:10306000B11C91E0C91AD108ECCE299883E092E016
:103070000197F1F76EE080E20E947E1B8BE891E001
:103080000197F1F7692D8AE20E947E1B692D80E38A
:103090000E947E1B81EE0E94BE1BEFEF9E1611F078
:1030A000002311F080EB01C080EA20E0472D6AE2A6
:1030B00072E00E944C1B299AE12CF12C8FEF0E94A8
:1030C000BE1B182F807321F4F1E0EF1AF108B1F75D
:1030D000299860E387E20E947E1B14FF03C081EE03
:1030E0000E94BE1B0E94AB1B15FD01E081E09FEF1B
:1030F000991280E0802BA0960FB6F894DEBF0FBE29
:10310000CDBFDF91CF911F910F91FF90EF90DF9096
:10311000CF90BF90AF909F908F907F906F905F9077
:103120004F903F900895FC0183818770886083836E
:1031300084818F71806284836783CF010895EF92C9
:10314000FF920F931F93CF93DF93EC017B016115E7
:10315000710541F0CB010E94FC2A8931910518F0DC
:1031600089E101C080E0082F10E02B81922F977039
:10317000980143E0220F331F4A95E1F7292B2B8357
:103180009C819F719C83882331F0A801B701CE01F7
:1031900007960E94052BFE01E00FF11F1782CE015A
:1031A000DF91CF911F910F91FF90EF9008950F93B2
:1031B0001F93CF93DF93EC016115710561F0FB0163
:1031C00001900020E9F73197E61BF70BE931F10593
:1031D00018F0E9E101C0E0E00E2F10E08B81282F0C
:1031E0002770C80133E0880F991F3A95E1F7822BC9
:1031F0008B838C818F718C83EE2329F0A801CE0103
:1032000007960E94DA33FE01E00FF11F1782CE010C
:10321000DF91CF911F910F91089580916B0284FDF2
:103220000C94011E08950F931F93CF938C01FC0102
:10323000828190916B0290FF03C08F3F39F50CC0E3
:10324000882339F08F3F41F0B8010E94A9168111FF
:103250001EC0C091030301C0CFEFB8018C2F0E94A4
:10326000A91690910303C91312C090916C028111A9
:1032700008C081E0890F8F70907F982B90936C022B
:1032800005C0907F90936C0281E001C080E0CF91F7
:103290001F910F91089520916B0222FD0C94131938
:1032A00080E008952BE043E06FEF80E00E94D92199
:1032B00063EA75E00E949F180E944B192CE043E0DE
:1032C0006FEF80E00E94D9216FE975E00E949F189E
:1032D0000E944B1964E670E080E090E00E947F1449
:1032E00043E955E066E080E00E94522264E670E027
:1032F00080E090E00E947F144FE755E067E081E0B6
:103300000E94522264E670E080E090E00E947F1408
:103310004FE655E068E082E00E94522264E670E0E9
:1033200080E090E00C947F14CF938091600281FD47
:103330001FC00E94A9148091600281608093600286
:10334000C4E02AE143E06FEF80E00E94D92162E00F
:103350000E9493180E944B198BE10E9467228111F1
:1033600002C0C15071F78091600282608093600258
:10337000CF910895E0916102F0916202309721F0BF
:103380000280F381E02D099408950F931F930E940A
:10339000300900916302109164022091650230911E
:1033A0006602601B710B820B930B1F910F910895A6
:1033B0009C0180916102909162028217930751F003
:1033C00090916B029F7190936B02309362022093F5
:1033D000610205C080916B02805E80936B02E09178
:1033E0006102F0916202309721F00190F081E02DAE
:1033F00009950E9430096093630270936402809380
:10340000650290936602089580916B0284608093B8
:103410006B0280916C02807880936C02E091B10520
:10342000F091B205309709F00994089580916C02EB
:103430008F70863020F08FE191E00C94D8190895B8
:103440000F931F930E94C51920916C02207720379B
:1034500029F000E117E220E030E004C000E61AEEB7
:1034600020E030E0061717072807390730F485E217
:1034700091E01F910F910C94D8191F910F9108950D
:10348000809102038F3F19F087E191E010C00E9404
:10349000C519613D77408105910558F080916B0217
:1034A000803618F483E191E002C08FE091E00C9443
:1034B000D81908950E94C519613D7740810591058D
:1034C00020F480916B0281FF0895809103038F3F68
:1034D00041F080916B028E7F80936B0283E191E0DB
:1034E00009C080916B02803618F48FE191E002C030
:1034F0008FE091E00C94D81980916D028F3FA1F07C
:103500000E94300960936702709368028093690299
:1035100090936A0280916D029091040389138093C5
:1035200004038BE191E013C00E94C519613D77400F
:103530008105910570F080916B02803618F487E167
:1035400091E005C0877F80936B028FE191E00C943E
:10355000D81908958FEF80936D02EBE6F2E0808139
:103560008860808328E143E06FEF80E00E94D921EA
:1035700061E00E9493180C941319809102038F3F0D
:10358000B1F40E9430096F3F19F06093240102C02A
:103590001092240123E043E06091240180E00E9426
:1035A000D92163E771E00E94D7180C94131908958C
:1035B000EBE6F2E08081897F81608083E2E0F3E0E6
:1035C0008FEF8283818327E043E06FEF0E94D92150
:1035D00063E771E00E94D7180C941319EBE6F2E050
:1035E0008081877F8F7E80831092670210926802AD
:1035F0001092690210926A0244E050E060E070E0CC
:1036000082E093E00C94C72ECF93DF93FC01EB0193
:10361000DA019C01205F3F4F98818C91892780833C
:10362000998111968C911197892781839A8112969D
:103630008C911297892782839B8113968C91139783
:1036400089278383349624961496E217F30721F78B
:10365000DF91CF910895FC01DB019C01205F3F4F7A
:1036600090818C9189278083918111968C911197FB
:1036700089278183928112968C9112978927828360
:10368000938113968C91139789278383349614968C
:10369000E217F30729F7089591E59CBD91E09DBDE0
:1036A0002A98E3E2F0E03197F1F78EBD00000DB407
:1036B00007FEFDCF8EB5FB019FEF4150C8F02223DE
:1036C00061F09EBD00000DB407FEFDCF8EB5611503
:1036D000710599F380833196F0CFDF0111968081D7
:1036E0008EBD00000DB407FEFDCF8EB5FD01E5CF08
:1036F0002A9AE3E2F0E03197F1F70895CF93DF9350
:103700001F92CDB7DEB7698320E041E0BE016F5F55
:103710007F4F0E944C1B0F90DF91CF9108958091B5
:103720006C02982F9077903759F0982F92959F7050
:103730009F5F97709295907F8F78892B80936C0212
:1037400080916B028B7F8F7E80936B0229986CE057
:1037500080E20C947E1B6FE080E20E947E1B6091F1
:1037600023016F3F19F08AE20E947E1B299A089577
:1037700021E041E060E070E00C944C1B20E040E070
:1037800060E070E00C944C1BAF92BF92CF92DF923E
:10379000EF92FF920F931F93CF93DF93CDB7DEB7D6
:1037A00064970FB6F894DEBF0FBECDBF8E010F5FDA
:1037B0001F4F80E1F80111928A95E9F760E170E00E
:1037C0008EE791E00E94142BAC016EE771E0C80116
:1037D0000E94CA338AE090E0909395048093940409
:1037E00040E1B80186E994E00E94102280E190E077
:1037F00021E060E1AE014B5E5F4F7BE1382FFC01C1
:10380000EE56FB4F7F01DE0151965D01F701D1902D
:103810007F01F501D1925F01E417F507B9F736137F
:1038200021C0605F3989EA89F0E0E054FC4FE491FF
:10383000E227E98BEB89F0E0E054FC4FE491EA8B5E
:10384000EC89F0E0E054FC4FE491EB8BE32FF0E0E7
:10385000E054FC4FE491EC8B27FF03C0220F272795
:1038600001C0220FFC01EA56FB4F5F017C01F0E131
:10387000EF1AF1083D916501C81AD90ACE0CDF1C78
:10388000F601D0803D25F50131935F01A417B507FE
:1038900089F70496803B910509F0B0CF80E1F801EB
:1038A00011928A95E9F7219A229A29982A9A1FB7A4
:1038B000F89480914A02811127C0E2EFF6E08491EA
:1038C000E6E0F7E09491E82FF0E0EE0FFF1FE058FC
:1038D000FE4FA591B491EC91E92321F461E08AE0D7
:1038E0000E94A70861E08AE00E94F4088CB580611C
:1038F0008CBD8CB580648CBD61E08DE00E94F408C5
:1039000061E08BE00E94F40880914A028F5F80930F
:103910004A021FBF29986EE080E20E947E1B8BE462
:1039200096E40197F1F763E083E20E947E1B6FE566
:1039300084E20E947E1B6CE485E20E947E1B65E2AD
:1039400086E20E947E1B64E08DE30E947E1B8DE177
:103950000E94B81B843041F063E780E50E947E1B23
:1039600064E08DE30E947E1B86E00E94B81B8532D6
:1039700029F485E00E94B81B8C3419F08FE091E0A7
:103980004AC062E082E20E947E1B60E081E20E9407
:103990007E1B63E08CE30E947E1B1FEF10930A01E5
:1039A00020E045E06AE071E08BE20E944C1B20E0E1
:1039B00045E06AE071E08AE20E944C1B20E045E0AD
:1039C0006AE071E080E30E944C1B82EE0E94BE1B05
:1039D00081EE0E94BE1B60E787E20E947E1B809101
:1039E0006B02806180936B02809105038E7F8093D0
:1039F0000503809102038F3F61F09FEF980F9E3F78
:103A000028F40E94E71D811104C0B8CF109302036F
:103A1000B5CF8FE191E00E94D81964960FB6F89463
:103A2000DEBF0FBECDBFDF91CF911F910F91FF90F1
:103A3000EF90DF90CF90BF90AF9008951F920F92BC
:103A40000FB60F9211240F900FBE0F901F90189574
:103A50004091A601262F30E0240F311D213231057F
:103A6000DCF42091DF022430C9F4FC0180E090E016
:103A7000861758F43091A6012191DC01AC57BE4F56
:103A8000A30FB11D2C930196F3CF8091A601680F6F
:103A90006093A60180E0089581E0089582E0089592
:103AA00008950895E091E1028091E002E81730F472
:103AB000F0E0EE51FD4F808190E008958FEF9FEF91
:103AC00008959091E1028091E002981750F4E92F57
:103AD000F0E0EE51FD4F208130E09F5F9093E102D6
:103AE00002C02FEF3FEFC90108958091E00290E0FE
:103AF0002091E102821B91090895CF92DF92EF920B
:103B0000FF920F931F93CF93DF937C01CB018A0128
:103B100020919502222389F0EB016B01C40ED51E82
:103B2000CC15DD0569F06991D701ED91FC9101900B
:103B3000F081E02DC7010995F3CF642F0E94281D65
:103B4000C801DF91CF911F910F91FF90EF90DF900F
:103B5000CF900895CF93DF931F92CDB7DEB76983DF
:103B6000209195022223D1F02091B802203240F01A
:103B700021E030E0FC013383228380E090E015C037
:103B800080919602E82FF0E0E956FD4F99819083ED
:103B90008F5F809396028093B80205C061E0CE01EA
:103BA00001960E94281D81E090E00F90DF91CF9157
:103BB0000895089580E090E0089585ED8093BC001D
:103BC0008091BC0084FDFCCF1092DF020895CF935A
:103BD000C82F809302038F3F51F08093230163E04D
:103BE00082E20E947E1B61E081E20E947E1B0E94B5
:103BF000AB1B6C2F80E090E00E94E72E81E0CF911C
:103C000008952F923F924F925F926F927F928F9280
:103C10009F92AF92BF92CF92DF92EF92FF920F935B
:103C20001F93CF93DF93CDB7DEB7E6970FB6F89427
:103C3000DEBF0FBECDBFE6E0DE2E1BE187E10E94B6
:103C4000B81B80FD83C3DA94DD2009F47FC321E033
:103C500041E060E070E080E60E944C1B082F81325A
:103C600020F082EE0E94BE1B00E021E0402F63E7BF
:103C700074E081E60E944C1B60E487E20E947E1B98
:103C800010928E0510928F0510929005109291055A
:103C9000109292051092930510929405109295053A
:103CA000109296051092970510929805109299051A
:103CB00010929A0510929B0510929C0510929D05FA
:103CC000109286051092870510928805109289053A
:103CD00010928A0510928B0510928C0510928D051A
:103CE000013128F082E090E09AAB89AB04C0A1E0FA
:103CF000B0E0BAABA9AB73E7472E74E0572EE9A941
:103D0000FAA93197FAABE9AB319609F45FC140E10A
:103D1000B201CE0181960E941022409194045091EC
:103D200095044115510509F451C164E0440F551F34
:103D30006A95E1F74A565B4FB201CE0141960E9467
:103D4000041BE989F0E0E854FA4FE491E98BED892E
:103D5000F0E0E854FA4FE491ED8BE98DF0E0E8549F
:103D6000FA4FE491E98FED8DF0E0E854FA4FE491D9
:103D7000ED8F8E8DEA8DF0E0E854FA4FE491EE8FEE
:103D8000EE89F0E0E854FA4FE491EA8FEA89F0E036
:103D9000E854FA4FE491EE8BE82FF0E0E854FA4F44
:103DA000E491EA8B8B89EB8DF0E0E854FA4FE491D3
:103DB000EB8BE82FF0E0E854FA4FE491EB8F8F891A
:103DC000EF8DF0E0E854FA4FE491EF8BE82FF0E04C
:103DD000E854FA4FE491EF8F8C89E88DF0E0E854D5
:103DE000FA4FE491EC8BEC8DF0E0E854FA4FE4915B
:103DF000E88FE8A1F0E0E854FA4FE491EC8FE82F67
:103E0000F0E0E854FA4FE491E8A3009194040150E3
:103E100009F4C3C070E1079FA00111244A565B4F0B
:103E2000BE016F5E7F4FCE0101960E94041BCE0142
:103E300001967C01DE015196BCABABABA5E0B0E0D6
:103E4000F7018080918092817380682D660F87FCD6
:103E50006127892D880F97FC8127392F330F97FD14
:103E60003127572D550F77FC512767FF05C0C62E08
:103E7000CC0C2C2C212602C0262E220C87FF05C03C
:103E8000482F440F342E312602C0382E330CA32E77
:103E9000AA0C37FDA126B52EBB0C57FDB126C22CAE
:103EA000CC0C27FCC126432D440F37FC4127FA2DAB
:103EB000FF0FA7FCF1272B2D220FB7FC2127782D10
:103EC0007C257DAB792D74277EAB692E6F26772DEF
:103ED0007227C2244325AF262B25E92FE627E827A2
:103EE000EC259EA9E927EA25E727F0E0E854FA4FF8
:103EF0009491EBA9FCA99083E72DE827E3272DA84F
:103F0000E225E427E625E227F0E0E854FA4F849121
:103F1000FD01EF70FF2791E1292E312C2C0E3D1E63
:103F2000E20DF31D8083382535273C258EA9832794
:103F3000A8267A25E72FF0E0E854FA4FA490FD0177
:103F40003596EF70FF27E20DF31DA08269255627F5
:103F50009DA959274527E42FE6252E27E22FF0E0DB
:103F6000E854FA4F2491FD013A96EF70FF2731E1B2
:103F7000232E312C2C0E3D1EE20DF31D208324E058
:103F8000E20EF11C8BA99CA904969CAB8BAB1496FA
:103F9000A531B10509F054CF3ACF46E954E0BE014E
:103FA0006F5E7F4FC2010E94041B6EE875E0C20184
:103FB0000E942B1B40E1BE016F5D7F4F8EE895E0B4
:103FC0000E94102290E1490E511C99CE3091760446
:103FD000832F8370823009F031CE20917704A22F95
:103FE000A770EA2E00917804F09074048091730415
:103FF0004091750490916C02906890936C0290913E
:10400000020349134FC0832F8695869586958A3182
:1040100008F089E190E03770BC0153E0660F771F2C
:104020005A95E1F7362B30937604FC01ED58FB4F9F
:10403000178223FF15C081E2E3E7F4E0A2E5B4E0D4
:1040400001900D928A95E1F7277F20612093560415
:1040500040935304F092540482E594E00E944B197B
:104060009091770494FD14C0B3E0EB1211C08091DD
:10407000780421EF280F233008F06DC0DFCD8130A8
:1040800009F440C18A3009F4D9CD8C3109F4D6CD78
:1040900080E090E0892B09F4D1CD83E794E00E9481
:1040A0000000CCCD4F3F09F0C9CD93E0A9134EC01D
:1040B00090916B0292FF03C0073009F4BFCD083026
:1040C00009F4BCCD043109F0B9CD909103038913F3
:1040D000B5CD0E9430094B015C01A3E09A22AA24CD
:1040E000BB240E94D7262B013C0181149104A1041A
:1040F000B104F1F00E94D726DC01CB0184199509A7
:10410000A609B709883E9340A105B10570F3B1E057
:104110008B1A9108A108B108E8EE4E0EE3E05E1E8E
:10412000611C711C81149104A104B10419F7DDCF45
:104130000091030325E143E06FEF8F2D0E94D92109
:10414000602F0E9493180E94131978CD9091030359
:10415000891374CD9DCF0430B1F48091790490918E
:104160002401891719F08F3F09F068CD0E943F2282
:104170009FEF980F9E3F18F40E94E71D5FCD8FEFD1
:10418000809302035BCD0830C9F400916B0200FFFD
:1041900055CD0E943F228F3F09F450CD8F5F8F3F56
:1041A00009F44CCD90910403891708F047CD01FD27
:1041B00045CD80930403F092030340CD083141F4D0
:1041C00029E143E06FEF8F2D0E94D92161E0B9CF43
:1041D000093161F480916B0283FF30CD877F80933A
:1041E0006B020E943F2280936D0228CD0E3109F4AC
:1041F00025CD0D31A9F42FE143E06FEF80E00E945F
:10420000D921FC0184818F718064848383818770CC
:104210008061838380E09FEF90878783CF0193CF76
:104220002091740421118EC08D3059F498E088E1FA
:104230000FB6F894A895809360000FBE909360002D
:10424000FFCF8B3169F40E943F2291E0811101C0C0
:1042500090E08091600290FB80F980936002EECC48
:10426000863099F490917A0481E0992319F09D3475
:1042700009F080E080935F0241E050E063E071E08C
:104280008FE592E00E94D72ED9CC833119F40E9499
:10429000A914D4CC8231C1F40E94C5194B015C0130
:1042A00026E143E06FEF80E00E94D921FC01848188
:1042B0008F71806A84838381877080628383878221
:1042C0009086A186B2861AC0823009F0D8CE22E04C
:1042D00043E06FEF80E00E94D921FC0184818F715F
:1042E000806A848383818770806283838FEF91E00B
:1042F000A3E0B2E087839087A187B287CF010E94B5
:104300004B199CCC20E030E0232B09F497CC9295FC
:1043100096959770953049F460917A0470917B047A
:1043200080917C0490917D040AC0911105C08AE7B8
:1043300094E00E94D52A03C060E070E0CB010E94A7
:1043400000007CCC8A3109F0A3CE78CCE6960FB67B
:10435000F894DEBF0FBECDBFDF91CF911F910F91BB
:10436000FF90EF90DF90CF90BF90AF909F908F9095
:104370007F906F905F904F903F902F900895CF93D4
:10438000DF93CBE4D2E060E070E0CB01299139917A
:10439000499159910E944B2F22E0CF35D207B1F7B6
:1043A00020E030E040EA50E40E94BC2FDF91CF9142
:1043B0000895E2E5F4E0909102039183828366839D
:1043C000258384814770807E482B4483CF010895E4
:1043D000E6E0F3E0A089B18982E08C93A485B585FD
:1043E0001C92A685B78580E18C93108EA489B5892F
:1043F00086E08C93A289B3898C9180618C93A28989
:10440000B3898C9188608C93A289B3898C918068E0
:104410008C930288F389E02D80818F7D80830895BD
:10442000CF93DF93FC01EB01DC01942F943090F0EB
:1044300088818C93898111968C9311978A81129629
:104440008C9312978B8113968C9313979450249688
:104450001496ECCF242F26952695437084E0289F50
:1044600090011124DB01A20FB31FE20FF31F415093
:1044700018F08D918193FBCFDF91CF9108958091BA
:104480007704829586958770813019F480917A043B
:104490000895811105C08AE794E00E94B72A089523
:1044A00080E00895CF93DF93262F8F3F11F0EA012C
:1044B00002C0C8EBD6E040E0682F80E00E94D9211E
:1044C000BE010E949F18DF91CF910C944B19CF929F
:1044D000DF92EF92FF92CF93DF93D82F0E943009A3
:1044E0006B017C0181E0D11180E080937804C0E011
:1044F0000E943009DC01CB018C199D09AE09BF096E
:10450000803D9740A105B10590F4C11110C0A89558
:104510000E94BA190E940D19809177048770833028
:1045200039F7C1E0809178048D13E1CFE1CF8C2F72
:10453000DF91CF91FF90EF90DF90CF900895909111
:10454000DF029111FCCF982F813208F090E281E0D8
:104550008093DF028093DE022FEF2093DD02109222
:10456000DC02290F2093DB028093DA028091DA02C9
:104570008C6E8093DA028091D902813061F41092BE
:10458000D9028091DA028093BB008091BC0083FD48
:10459000F8CF85EC01C085EE8093BC008091DF02EE
:1045A0008130E1F38091DC02891710F49091DC02F4
:1045B000E9EBF2E0A2EEB2E080E0891721F0219170
:1045C0002D938F5FFACF1092E1028093E00208955D
:1045D0003091B802313208F04BC08091DF02811176
:1045E000FCCF9091B70222E02093DF0221E02093DC
:1045F000DE022FEF2093DD021092DC023093DB020B
:10460000E7E9F2E0A9EBB2E020E0321721F04191B6
:104610004D932F5FFACF1092DA022091DA02990FB0
:10462000922B9093DA029091D902913061F410921A
:10463000D9029091DA029093BB009091BC0093FD57
:10464000F8CF95EC01C095EE9093BC009091DF02FD
:104650009230E1F39091DD029F3F79F08091DD028D
:10466000803241F08091DD02803331F084E005C07A
:1046700081E003C082E001C083E0109296021092B4
:10468000B8021092950208951F93CF93DF9391E0A3
:104690009093950296E79093B7021092960210922B
:1046A000B802682F83EA93E00E94AA1D0E94E822C4
:1046B00082E090E00E949F228091E00290E02091B1
:1046C000E102821B910982309105ECF383EA93E0C9
:1046D0000E94611D182F83EA93E00E94611DD12F73
:1046E00020E0C22F9E01282BC901DF91CF911F919D
:1046F00008950E944423982789279827089591E0D8
:104700009093950296E79093B702109296021092BA
:10471000B802682F83EA93E00E94AA1D0E94E82253
:1047200081E090E00E949F229091E0028091E1025E
:104730009817F1F383EA93E00E94611D0895CF93E7
:10474000C62F91E09093950296E79093B70210924E
:1047500096021092B802682F83EA93E00E94AA1D85
:104760006C2F83EA93E00E94AA1DCF910C94E8225B
:10477000DB01FC0158E0149744E018960E9001927A
:104780004A95E1F75A95C1F708958F929F92AF929B
:10479000BF92CF92DF920F931F93EDB7FEB7B897FA
:1047A0000FB6F894EDBF0FBEFEBF9F938F93319667
:1047B0008F0149015A016B01C801AAD2BB2011F433
:1047C000AA2059F0C801B601A1D030E4C30ED11C13
:1047D00032E0931AA108B108F1CFC801B601A401D3
:1047E00015D08F919F91B801C3DFEDB7FEB7B89692
:1047F0000FB6F894EDBF0FBEFEBF1F910F91DF9073
:10480000CF90BF90AF909F908F900895523090F0CE
:104810009F938F937F936F935F934F9377D04F9135
:104820005F916F917F918F919F91525030E4630F10
:10483000711DECCFEDB7FEB70FB6E054F040F89421
:10484000EDBF0FBEFEBF3196242F269526952695E7
:1048500050FB25F9DB01222329F0122E0D90019245
:104860001A94E1F730E8032E37E0342329F0069458
:104870003A95E9F73C91032A01922395293308F4EC
:1048800021C030E4321B19F011923A95E9F7FF97F5
:104890003197BF01FF93EF939F938F935F934F9354
:1048A00035D04F915F918F919F91EF91FF91DC01F6
:1048B00091963C9132503D9326E03C9130403D939F
:1048C0002A95D9F738E3321B21F0112411923A9539
:1048D000E9F7DC01909638960D90040E02920D9047
:1048E000051E029236E00D90011C02923A95D9F70E
:1048F000F897BF010BD0EDB7FEB70FB6FF96319614
:10490000F894EDBF0FBEFEBF112408954F925F9241
:104910006F927F928F929F92AF92BF92CF92DF92CF
:10492000EF92FF920F931F93CF93DF934DB75EB734
:104930009A01FB0140525140DA010FB6F8944DBF85
:104940000FBE5EBF2F933F938F939F93119640E1CD
:1049500071916191319121912D933D936D937D934F
:104960004A95B1F740E3142EFD01FF97319701916D
:10497000119121913191C190D190E190F1906D2DE3
:104980007E2D8F2D9C2D41E0E9D14B015C01B701BB
:10499000C60142E0F9D186269726A826B92673E0FB
:1049A000F694E794D794C7947A95D1F78C249D24F4
:1049B000AE24BF24080D191D2A1D3B1D648D758D65
:1049C000868D978D060F171F281F391FC0A8D1A8E5
:1049D000E2A8F3A8B701C60141E0D6D15C014B01C2
:1049E00042E0D2D186269726A826B92672E0F69410
:1049F000E794D7947A95D9F78D249E24AF24080D97
:104A0000191D2A1D3B1D0D931D932D933D931A9443
:104A100009F0AACFFF91EF91EF93FF9390E21190ED
:104A20001D929A95E1F79097ED01E0E1FCE4BA95CB
:104A300090E4192E4C885D886E887F886889798912
:104A40008A899B89C88CD98CEA8CFB8C4622572298
:104A5000682279226095709580959095C622D7221C
:104A6000E822F9224C245D246E247F24F888C9882A
:104A7000DA88EB88B601C70142E070D14B015C01D6
:104A8000B601C70143E080D186269726A826B9261D
:104A9000B701C60141E078D186269726A826B92617
:104AA000480C591C6A1C7B1C8C8C9D8CAE8CBF8C5A
:104AB000480C591C6A1C7B1C8D909D90AD90BD903C
:104AC000480C591C6A1C7B1C85909590A590B5904C
:104AD000480C591C6A1C7B1C688179818A819B81E6
:104AE0008C809D80AE80BF8086229722A822B9222A
:104AF000C884D984EA84FB846C217D218E219F2186
:104B000086269726A826B9266C817D818E819F8175
:104B10006C217D218E219F2186269726A826B926E5
:104B2000C880D980EA80FB80B601C70142E02CD161
:104B30008B019C01B701C60143E010D1062717275E
:104B4000282739276F2D7C2D8D2D9E2D42E006D1F3
:104B50000627172728273927080D191D2A1D3B1D51
:104B60005CE16C969A919C835A95E1F7C888D98844
:104B7000EA88FB88C40CD51CE61CF71CC88AD98AB5
:104B8000EA8AFB8A040D151D261D371D088319832B
:104B90002A833B831A9409F04DCFFF91EF9158E09F
:104BA0000081118122813381699179918991999153
:104BB000060F171F281F391F01931193219331935B
:104BC0005A9571F7319652E066E04081450F419366
:104BD000552728F44081451F41936A95D1F75F918D
:104BE0004F910FB6F8944DBF0FBE5EBF1124DF91F9
:104BF000CF911F910F91FF90EF90DF90CF90BF90DA
:104C0000AF909F908F907F906F905F904F9008959E
:104C1000982F8A4291443771CFFBC0B5A5DBB5E927
:104C20005BC25639F111F159A4823F92D55E1CAB9B
:104C300098AA07D8015B8312BE853124C37D0C5529
:104C4000745DBE72FEB1DE80A706DC9B74F19BC171
:104C5000C1699BE48647BEEFC69DC10FCCA10C2461
:104C60006F2CE92DAA84744ADCA9B05CDA88F97645
:104C700052513E986DC631A8C82703B0C77F59BFAF
:104C8000F30BE0C64791A7D55163CA0667292914DB
:104C9000850AB72738211B2EFC6D2C4D130D385378
:104CA00054730A65BB0A6A762EC9C281852C72923A
:104CB000A1E8BFA24B661AA8708B4BC2A3516CC768
:104CC00019E892D1240699D685350EF470A06A10A1
:104CD00016C1A419086C371E4C774827B5BCB034F0
:104CE000B30C1C394AAAD84E4FCA9C5BF36F2E688E
:104CF000EE828F746F63A5781478C8840802C78C1D
:104D0000FAFFBE90EB6C50A4F7A3F9BEF27871C61F
:104D1000DC01E2E2FDE468E275917D936A95E1F7DA
:104D2000089567E6096A85AE67BB72F36E3C3AF593
:104D30004FA57F520E518C68059BABD9831F19CDAF
:104D4000E05B0000000000000000483038F0592F00
:104D5000982F872F762F652F4850F7CF55278894A7
:104D6000442339F0661F771F881F991F551F4A95E6
:104D7000C9F7652B0895483038F0562F672F782FE4
:104D8000892F952F4850F7CF55278894442339F021
:104D9000979587957795679557954A95C9F7952B78
:104DA0000895AB01692F782F852F942F08953FB771
:104DB000F8948091140290911502A0911602B0917E
:104DC000170226B5A89B05C02F3F19F00196A11D1B
:104DD000B11D3FBFBA2FA92F982F8827820F911D91
:104DE000A11DB11DBC01CD0142E0660F771F881FD8
:104DF000991F4A95D1F70895CF93DF93FC01108254
:104E000011821282148215821682DC0117968AE1C1
:104E1000ED0119928A95E9F782E08383DF91CF91C2
:104E2000089587E591E09093340480933304809152
:104E3000AB019091AC018353944071F4E09146042E
:104E4000F091470490818091480480958923808364
:104E50001092AC011092AB010895CF92DF92EF92C5
:104E6000FF921F93CF93DF93CDB7DEB728970FB68E
:104E7000F894DEBF0FBECDBF109209031092080355
:104E800098EEC92E93E0D92EE12CF12CC0920A03A2
:104E9000D0920B03E0920C03F0920D0383E391E0B8
:104EA000909307038093060385EC90E0909313039F
:104EB0008093120384EC90E0909315038093140385
:104EC00080EC90E0909317038093160381EC90E0C0
:104ED000909319038093180382EC90E090931B0346
:104EE00080931A0386EC90E090931D0380931C033B
:104EF00010921F031092200310922103109222039C
:104F00001092A6031092A503C092A703D092A80303
:104F1000E092A903F092AA0385E491E09093A403A0
:104F20008093A30388E09E012F5F3F4FD901E82FB4
:104F30001D92EA95E9F711E0109386051092870516
:104F4000109288051092890510928A0510928B059F
:104F500010928C0510928D05109295041092940475
:104F600010929F0510929E051092A1051092A00527
:104F700090EFE6E9F4E0DF011D929A95E9F71887D2
:104F8000F901AEE8B5E0982F01900D929A95E1F7FE
:104F9000F901A6E9B5E0982F01900D929A95E1F7F5
:104FA0001093A20592E09093A30593E09093A4053B
:104FB00094E09093A50595E09093A60596E09093D4
:104FC000A70597E09093A8058093A90589E08093B1
:104FD000AA058AE08093AB058BE08093AC058CE05A
:104FE0008093AD058DE08093AE058EE08093AF0594
:104FF0008FE08093B00583E794E00E94FC2682E571
:1050000094E00E94FC261092360410923504C0925F
:105010003704D0923804E0923904F0923A0487E5DC
:1050200091E0909334048093330410924A041092D8
:10503000490410924C0410924B0410924E041092AA
:105040004D041092500410924F04809151048E7FB1
:105050008D7F8093510486958170682F612786E04B
:105060000E94A70861E086E00E94F408E2E0F7E011
:10507000E491E0934304EEEEF6E0E491F0E0EE0F0D
:10508000FF1FE252F94F85919491909345048093CC
:10509000440460E087E00E94F4088091510481FD9F
:1050A00004C061E087E00E94A70887E080933F0486
:1050B000E3E0F7E0E491E0934004EFEEF6E0E49102
:1050C000F0E0EE0FFF1FEC52F94F85919491909311
:1050D00042048093410482E194E00E94FC261092F5
:1050E00018041092170481EF93E00E94FC2681E0DF
:1050F0008093F7038093F60380ED93E00E94FC26F3
:1051000012E01093D60384E08093D5038FEA93E0F6
:105110000E94FC261093B50385E08093B403289683
:105120000FB6F894DEBF0FBECDBFDF91CF911F91B8
:10513000FF90EF90DF90CF900895CF93DF93CDB79E
:10514000DEB7CA55D1090FB6F894DEBF0FBECDBF8A
:10515000789484B5826084BD84B5816084BD85B552
:10516000826085BD85B5816085BD80916E0081605E
:1051700080936E0010928100809181008260809304
:105180008100809181008160809381008091800006
:105190008160809380008091B10084608093B10031
:1051A0008091B00081608093B00080917A0084602B
:1051B00080937A0080917A00826080937A00809157
:1051C0007A00816080937A0080917A008068809371
:1051D0007A001092C100A89580E090E0892B11F030
:1051E0000E9400000E94E821809160028D7F8093E0
:1051F000600280E090E0892B11F00E94000040E204
:1052000050E063E671E0CE0101960E94C72E40E1B6
:1052100050E06CE871E0CE0181960E94C72E49E013
:1052200050E063E871E0CE01C1960E94C72E41E0D4
:1052300050E06AE171E0CE01865A9F4F0E94C72E6E
:1052400028EC31E040E050E0BE016F5F7F4FCE01BF
:10525000CA960E94C52341E050E063E071E08FE50B
:1052600092E00E94C72E6FEF81E090E00E94E72E4F
:1052700080916C028F7880936C021092620210927F
:10528000610285E291E00E94D81984E999E1909346
:10529000B2058093B1050E9430096B017C010E9428
:1052A0003009DC01CB018C199D09AE09BF098031A1
:1052B0009742A105B10580F00E94E614A895A89533
:1052C0000E94BA1980916B0284FD0E94011E0E9407
:1052D000940B0E94B604F3CF0E94BA190E940D19D4
:1052E000A89580916B0282FFDACFE6CFEF920F9301
:1052F0001F93CF93DF93E80147FD02C034E001C064
:1053000034E1042E000C550B57FF03C05195419515
:105310005109E32E022F242FAE010E94612BCE01F2
:10532000DF91CF911F910F91EF9008950F931F93ED
:10533000CF93DF938230910510F482E090E0E0910A
:10534000B505F091B60520E030E0A0E0B0E0309780
:1053500019F1408151810281138148175907C8F022
:105360008417950769F4109731F012960C931297F1
:1053700013961C9327C00093B5051093B60522C061
:105380002115310519F04217530718F49A01BD0190
:10539000EF01DF01F801DBCF21153105F9F0281B02
:1053A000390B2430310580F48A819B8161157105A8
:1053B00021F0FB019383828304C09093B605809310
:1053C000B505FE01329644C0FE01E20FF31F819342
:1053D000919322503109398328833AC02091B30533
:1053E0003091B405232B41F420912B0130912C01F5
:1053F0003093B4052093B3052091290130912A01FF
:105400002115310541F42DB73EB740912D01509142
:105410002E01241B350BE091B305F091B405E21782
:10542000F307A0F42E1B3F0B2817390778F0AC01C7
:105430004E5F5F4F2417350748F04E0F5F1F5093A4
:10544000B4054093B3058193919302C0E0E0F0E08E
:10545000CF01DF91CF911F910F910895CF93DF93EB
:10546000009709F481C0FC01329713821282A09147
:10547000B505B091B605109781F420813181820F76
:10548000931F2091B3053091B4052817390751F5C2
:10549000F093B405E093B30567C0ED0120E030E080
:1054A000CE17DF0740F44A815B819E01411551050B
:1054B000F1F0EA01F5CFD383C28340815181840F9B
:1054C000951FC817D90759F488819981840F951FB2
:1054D0000296918380838A819B81938382832115A5
:1054E000310529F4F093B605E093B5053DC0E90117
:1054F000FB83EA8349915991C40FD51FEC17FD072F
:1055000061F480819181840F951F0296E90199834E
:105510008883828193819B838A83E0E0F0E0129606
:105520008D919C911397009719F0FD01DC01F7CF45
:105530008D919C9111979D012E5F3F4F820F931F7C
:105540002091B3053091B4052817390769F43097D5
:1055500029F41092B6051092B50502C0138212828A
:10556000B093B405A093B305DF91CF910895FC01EA
:1055700088279927E89421912032E9F3293010F007
:105580002E30C8F32B3241F02D3239F4689404C028
:105590000E943F2B820F911D219120532A30C0F38E
:1055A0001EF4909581959F4F08951F93FC019927B4
:1055B0008827BC01E89411911032E9F3193010F0FA
:1055C0001E30C8F31B3251F01D3249F4689406C0F6
:1055D0000E942A2B610F711D811D911D1191105385
:1055E0001A30B0F33EF490958095709561957F4F99
:1055F0008F4F9F4F1F910895FC0105900020E9F700
:10560000809590958E0F9F1F0895FB01DC014150FE
:10561000504048F005900D920020C9F701C01D923E
:1056200041505040E0F70895FC01615070400190F6
:105630000110D8F7809590958E0F9F1F0895BB2776
:105640004A3031F4992322F4BDE2909581959F4F21
:105650000C94482B592F482F372F262F660F771F72
:10566000881F991F660F771F881F991F620F731F6E
:10567000841F951F660F771F881F991F08957AE072
:10568000979F902D879F802D910D11240895BB2702
:10569000FB015527AA27880F991FAA1FA41710F0EE
:1056A000A41B83955051B9F7A05DAA3308F0A95DFA
:1056B000A193009779F7B111B1931192CB010C949A
:1056C000932DA9E0B0E0E7E6FBE20C940A2F6A0113
:1056D000122FB02E2BE3201720F0FF24F394F00EAE
:1056E00002C02CE3F22E0F2D27E0AE014F5F5F4F7B
:1056F0000E94BB2CBC014981842F8970813031F01C
:10570000E1FC06C0E0FE06C090E205C09DE203C0D9
:105710009BE201C090E05E2D507143FF3CC09111AF
:1057200002C083E001C084E0811718F4212F281BF8
:1057300001C020E051110BC0F601822F30E2882316
:1057400019F031938150FBCFC20ED11C20E0992378
:1057500029F0D6019C93F60131966F01C60103969C
:10576000E2FE0AC03EE4D6013C9341E411964C931C
:10577000119712963C9306C03EE6F601308341E64F
:1057800041833283FC01322F40E2332309F442C0CB
:1057900041933150FACF42FF44C0911102C083E0DF
:1057A00001C084E0811718F4212F281B01C020E0DC
:1057B00051110BC0F601822F30E2882319F031938A
:1057C0008150FBCFC20ED11C20E0992329F0D601D5
:1057D0009C93F60131966F01C6010396E2FE0BC061
:1057E00039E4D6013C933EE411963C93119736E49C
:1057F00012963C9307C039E6F60130833EE63183CA
:1058000036E63283FC01322F40E2332319F0419314
:105810003150FBCFFC01E20FF11D10828EEF9FEFA4
:10582000A6C021E030E0911102C020E030E0161661
:1058300017061CF4FB01319602C0E1E0F0E02E0FE8
:105840003F1FBB2021F0EB2DF0E0319602C0E0E0DD
:10585000F0E02E0F3F1FE12FF0E02E173F071CF462
:10586000121B212F01C020E08E2D887159F4F60102
:10587000822F30E2882319F031938150FBCFC20E82
:10588000D11C20E0992329F0D6019C93F601319692
:105890006F0151110BC0F601822F90E3882319F09C
:1058A00091938150FBCFC20ED11C20E00F2D060F2B
:1058B0009A81342F307144FF03C0913309F40150B1
:1058C000101624F4093018F008E001C001E0AB0123
:1058D00077FF02C040E050E0FB01E41BF50BA1E0C4
:1058E000B0E0AC0FBD1FEA0FFB1F8EE2A82E4B01EC
:1058F000801A91080B2D10E01195019511094F3F69
:10590000BFEF5B0721F4D601AC9211966D016417CD
:1059100075072CF08416950614F4818101C080E38C
:10592000415051093196D60111967D01401751071A
:1059300024F0D6018C936701E2CF6417750739F420
:10594000963320F4953319F4311101C081E3F60147
:105950008083F701822F90E2882319F09193815080
:10596000FBCFF701E20FF11D108280E090E0299655
:10597000ECE00C94262F283008F027E03327DA01DA
:10598000990F311D87FD916000966105710539F40D
:1059900032602E5F3D9330E32A95E1F708959F3FF3
:1059A00030F080387105610509F03C5F3C5F3D9344
:1059B000913008F08068911DDF93CF931F930F9370
:1059C000FF92EF92192F987F9695E92F96959695CD
:1059D000E90FFF27E052FF4F99273327EE24FF24DA
:1059E000A701E70105900894079428F4360FE71EF5
:1059F000F81E491F511D660F771F881F991F0694B7
:105A0000A1F70590079428F4E70EF81E491F561FCA
:105A1000C11D770F881F991F661F0694A1F7059077
:105A2000079428F4F80E491F561FC71FD11D880F71
:105A3000991F661F771F0694A1F70590079420F41D
:105A4000490F561FC71FD81F990F661F771F881F42
:105A50000694A9F784911095177041F0D695C795D3
:105A600057954795F794E7941A95C1F7E6E8F0E063
:105A700068941590159135916591959105907FE207
:105A80007395E118F10A430B560BC90BD009C0F707
:105A9000E10CF11E431F561FC91FD01D7EF4703349
:105AA00011F48A95E6CFE894015030F0080F0AF41B
:105AB0000027021708F4202F2395022F7A3328F0AD
:105AC00079E37D932A95E9F710C07D932A9589F6AD
:105AD000069497956795379517951794E118F10AED
