:100000000C945D000C9485000C9485000C94850084
:100010000C9485000C9485000C9485000C9485004C
:100020000C9485000C9485000C9485000C9485003C
:100030000C9485000C9485000C9485000C9485002C
:100040000C94BB020C9485000C9489020C946302FE
:100050000C9485000C9485000C9485000C9485000C
:100060000C9485000C9485000000000024002700FB
:100070002A0000000000250028002B0004040404CE
:100080000404040402020202020203030303030342
:10009000010204081020408001020408102001021F
:1000A00004081020000000080002010000030407FB
:1000B0000000000000000000E20311241FBECFEF8B
:1000C000D8E0DEBFCDBF11E0A0E0B1E0E4E5F8E0AC
:1000D00002C005900D92A636B107D9F722E0A6E638
:1000E000B1E001C01D92AC30B207E1F710E0CDE500
:1000F000D0E004C02197FE010E941D04CC35D10739
:10010000C9F70E9405030C9428040C940000E1EB4D
:10011000F0E09491EDE9F0E02491E9E8F0E0E49179
:10012000EE2309F43CC0992339F1933091F038F46F
:100130009130A9F0923001F594B59F7D12C09730AF
:1001400091F09830A1F09430B9F4909180009F7DA7
:1001500003C0909180009F77909380000DC094B56C
:100160009F7794BD09C09091B0009F7703C0909194
:10017000B0009F7D9093B000F0E0EE0FFF1FEE58AF
:10018000FF4FA591B4919FB7F894811104C08C9151
:100190002095282302C0EC912E2B2C939FBF08950D
:1001A000CF92DF92EF92FF920F931F93CF93DF9343
:1001B0006C017A018B01C0E0D0E0CE15DF0581F043
:1001C000D8016D918D01D601ED91FC910190F081E6
:1001D000E02DC6010995892B11F02196EECF7E0105
:1001E000C701DF91CF911F910F91FF90EF90DF90AA
:1001F000CF900895089580E090E00895FC01538D1C
:10020000448D252F30E0842F90E0821B930B5417F0
:1002100010F0CF96089501970895FC01918D828D7D
:10022000981761F0828DDF01A80FB11D5D968C914A
:10023000928D9F5F9F73928F90E008958FEF9FEF55
:100240000895FC01918D828D981731F0828DE80F11
:10025000F11D858D90E008958FEF9FEF0895FC01CB
:10026000918D228D892F90E0805C9F4F821B910998
:100270008F73992708958FE691E00E942F0121E066
:10028000892B09F420E0822F0895FC01848DDF0181
:10029000A80FB11DA35ABF4F2C91848D90E00196F9
:1002A0008F739927848FA689B7892C93A089B189E8
:1002B0008C91837080648C93938D848D981306C089
:1002C0000288F389E02D80818F7D80830895EF92ED
:1002D000FF920F931F93CF93DF93EC0181E0888F00
:1002E0009B8D8C8D981305C0E889F989808185FDE7
:1002F00026C0F62E0B8D10E00F5F1F4F0F731127D6
:10030000E02E8C8DE8120CC00FB607FCFACFE889FE
:10031000F989808185FFF5CFCE010E944501F1CF9B
:100320008B8DFE01E80FF11DE35AFF4FF0829FB75E
:10033000F8940B8FEA89FB89808180620AC09FB79D
:10034000F894EE89FF896083E889F9898081837058
:10035000806480839FBF81E090E0DF91CF911F9107
:100360000F91FF90EF900895CF93DF93EC01888D6C
:100370008823C9F0EA89FB89808185FD05C0A889A9
:10038000B9898C9186FD0FC00FB607FCF5CF80812F
:1003900085FFF2CFA889B9898C9185FFEDCFCE0179
:1003A0000E944501E7CFDF91CF91089580E090E072
:1003B000892B29F00E943B0181110C9400000895C3
:1003C0003FB7F89480916B0190916C01A0916D0101
:1003D000B0916E0126B5A89B05C02F3F19F001967C
:1003E000A11DB11D3FBFBA2FA92F982F8827820FBB
:1003F000911DA11DB11DBC01CD0142E0660F771F0B
:10040000881F991F4A95D1F708958F929F92AF92B6
:10041000BF92CF92DF92EF92FF926B017C010E941C
:10042000E0014B015C01C114D104E104F104F1F0DD
:100430000E94E001DC01CB0188199909AA09BB09D6
:10044000883E9340A105B10570F321E0C21AD1089E
:10045000E108F10888EE880E83E0981EA11CB11C0B
:10046000C114D104E104F10419F7DDCFFF90EF903E
:10047000DF90CF90BF90AF909F908F900895CF93D3
:10048000DF93009779F0FC0101900020E9F73197A4
:10049000AF01481B590BBC018FE691E00E94D000D0
:1004A000EC0102C0C0E0D0E042E050E064E171E065
:1004B0008FE691E00E94D0008C0F9D1FDF91CF91BD
:1004C00008950E9423041F920F920FB60F921124D9
:1004D0002F933F934F935F936F937F938F939F934C
:1004E000AF93BF93EF93FF938FE691E00E94450196
:1004F000FF91EF91BF91AF919F918F917F916F91FC
:100500005F914F913F912F910F900FBE0F901F90D1
:1005100018951F920F920FB60F9211242F938F935D
:100520009F93EF93FF93E0917F01F0918001808191
:10053000E0918501F091860182FD12C09081809149
:1005400088018F5F8F7320918901821751F0E091AC
:100550008801F0E0E159FE4F958F8093880101C03A
:100560008081FF91EF919F918F912F910F900FBEFE
:100570000F901F9018951F920F920FB60F92112493
:100580002F933F938F939F93AF93BF938091670176
:1005900090916801A0916901B0916A013091660162
:1005A00023E0230F2D3720F40196A11DB11D05C0B6
:1005B00026E8230F0296A11DB11D209366018093AA
:1005C000670190936801A0936901B0936A018091DB
:1005D0006B0190916C01A0916D01B0916E0101963B
:1005E000A11DB11D80936B0190936C01A0936D01CF
:1005F000B0936E01BF91AF919F918F913F912F91D9
:100600000F900FBE0F901F901895789484B582605C
:1006100084BD84B5816084BD85B5826085BD85B5A6
:10062000816085BD80916E00816080936E00109224
:10063000810080918100826080938100809181009F
:100640008160809381008091800081608093800030
:100650008091B10084608093B1008091B00081608E
:100660008093B00080917A00846080937A008091BA
:100670007A00826080937A0080917A008160809312
:100680007A0080917A00806880937A001092C1008D
:10069000E0917F01F091800182E08083E0917B0115
:1006A000F0917C011082E0917D01F0917E0180E16A
:1006B000808310928701E0918301F091840186E0AC
:1006C0008083E0918101F09182018081806180834B
:1006D000E0918101F0918201808188608083E091C6
:1006E0008101F0918201808180688083E0918101A5
:1006F000F091820180818F7D8083EDE9F0E024918B
:10070000E9E8F0E08491882399F090E0880F991F40
:10071000FC01E859FF4FA591B491FC01EE58FF4F41
:10072000859194918FB7F894EC91E22BEC938FBF65
:1007300087E191E00E943F02C0E0D0E060E0CE019E
:100740000E940F042196C11584E0D807B9F78DE205
:1007500091E00E943F0280910001909101011816E2
:10076000190634F081E090E090930101809300013C
:10077000C8EED3E081E00E94870080910001909153
:10078000010197FD0196959587958C9F60018D9F3E
:10079000D00C9C9FD00C11240D2C000CEE08FF08EF
:1007A000C701B6010E94050280E00E948700C701D0
:1007B000B6010E94050280E591E00E943F020E947E
:1007C000D601D8CFEFE6F1E01382128288EE93E0F3
:1007D000A0E0B0E084839583A683B78386E091E0B0
:1007E0009183808385EC90E09587848784EC90E00A
:1007F0009787868780EC90E0918B808B81EC90E0EE
:10080000938B828B82EC90E0958B848B86EC90E0CE
:10081000978B868B118E128E138E148E0895262F31
:10082000F999FECF1FBA92BD81BD20BD0FB6F894D5
:10083000FA9AF99A0FBE01960895EE0FFF1F0590E0
:10084000F491E02D099481E090E0F8940C94280450
:04085000F894FFCF4A
:100854000200000000006701D000FE00B4012F0177
:100864000D0121010D0A005374617274696E6720D1
:100874006D656D6F727920776970652E004D7920F2
:100884006D656D6F72792028656570726F6D2920B2
:10089400686173206265656E2077697065642E00F7
:1008A40049206A75737420626C696E6B6564206D8F
:0608B40079204C454400D0
:00000001FF
