:100000000C9414010C943C100C9415100C94631077
:100010000C9463100C9463100C944A150C943C01DE
:100020000C943C010C943C010C943C010C943C015C
:100030000C943C010C943C010C943C010C943C014C
:100040000C94CB0F0C943C010C941D0A0C94F709F2
:100050000C943C010C943C010C943C010C943C012C
:100060000C943C010C943C012C2066726F6D2000B6
:100070004368616E67696E67206C6576656C207495
:100080006F20004265666F726520636C69707069ED
:100090006E6720726571756573746564206C657632
:1000A000656C3A2000526571756573746564206CE7
:1000B0006576656C20697320003C2D206D65737337
:1000C00061676520666F72206368696C6420230035
:1000D00000000000240027002A00000000080002A1
:1000E0000100000304070000000000000000000001
:1000F0000000230026002900000000002500280041
:100100002B00040404040404040402020202020298
:1001100003030303030301020408102040800102CB
:10012000040810200102040810205761726D696EE6
:1001300067207570207468652073656E736F7273C5
:1001400020283135207365636F6E6473292E004C4F
:100150006F616465643A200048656C6C6F20776F4E
:10016000726C6400312E3300506C616E74204865EF
:10017000616C7468002D2073656E64696E6720641D
:100180006174612E00436F6E6E656374696F6E20DB
:100190006C6F737400436F6E6E656374696F6E206D
:1001A0006973206F6B002D206D6F697374757265B4
:1001B000206C6576656C2069732062656C6F7720B2
:1001C00000206D6F697374757265206C6576656C5F
:1001D00020253A2000206D6F697374757265206C5C
:1001E0006576656C2028707265293A20005F6D6F16
:1001F00064756C6F3A5F005F5F6C6F6F705F004299
:100200004F58462832352C002F2F2F20437265611E
:1002100074696E6720677261706820666F723A2039
:10022000002000006915971611241FBECFEFD8E0FB
:10023000DEBFCDBF11E0A0E0B1E0E8E3F6E302C02D
:1002400005900D92A23FB107D9F723E0A2EFB1E0EC
:1002500001C01D92A13AB207E1F711E0C3E1D1E07C
:1002600004C02197FE010E941F1AC231D107C9F7AD
:100270000E94B3160C940F1B0C940000EF92FF9297
:100280000F931F93CF93DF938C0169EB70E08AEF9C
:1002900091E00E941F09F80186810E949B09F801E4
:1002A0008581833009F05BC0C80107960E946D18F4
:1002B000EC0165EA70E08AEF91E00E941F09CE012F
:1002C0000E94B009F801168163E870E08AEF91E0BE
:1002D0000E941F09CE010E94B009C536D1050CF05D
:1002E0003EC0D7FF02C0C0E0D0E0CE010197833608
:1002F0009105A8F5812F90E08C010150110917FD9F
:100300008C011595079560E770E08AEF91E00E94F7
:100310001F09BE01DD0F880B990B4AE00E945809A6
:1003200068E670E08AEF91E00E941F09C801875FCC
:100330009E4F7C01FC0180810E949B09F701C083D4
:100340006C2FC80183569E4F0E944B19802FDF915E
:10035000CF911F910F91FF90EF900C94F710DF91C8
:10036000CF911F910F91FF90EF900895FC01838131
:1003700087708860838384818F71806284836783C0
:10038000CF010895EF92FF920F931F93CF93DF93C6
:10039000EC017B016115710541F0CB010E94B91898
:1003A0008931910518F089E101C080E0082F10E043
:1003B0002B81922F9770980143E0220F331F4A95AB
:1003C000E1F7292B2B839C819F719C83882331F03B
:1003D000A801B701CE0107960E94C218FE01E00FE6
:1003E000F11F1782CE01DF91CF911F910F91FF90E6
:1003F000EF9008950F931F93CF93DF93EC01611556
:10040000710561F0FB0101900020E9F73197E61BCF
:10041000F70BE931F10518F0E9E101C0E0E00E2F3A
:1004200010E08B81282F2770C80133E0880F991FB7
:100430003A95E1F7822B8B838C818F718C83EE232D
:1004400029F0A801CE0107960E94001BFE01E00FD3
:10045000F11F1782CE01DF91CF911F910F91089567
:10046000EF92FF921F93CF93DF937C01FC01C28137
:100470008091460380FF04C0CF3F09F05BC014C0E9
:10048000C11103C0C091F7010FC0CF3F69F08C2F9D
:1004900090E003960E9433198F3F29F48091F70171
:1004A000F70190819813C82F8091F601F70180839E
:1004B000438142FD06C046954695469517E0140FC8
:1004C00001C010E2D091F901D170299883E092E047
:1004D0000197F1F76EE080E20E9447148BE891E00B
:1004E0000197F1F76C2F8AE20E9447146C2F80E38A
:1004F0000E94471481EE0E948714CF3F11F0DD2344
:1005000011F080EB01C080EA412F113208F040E287
:1005100020E0B7010E941514299AE12CF12C8FEFED
:100520000E948714182F807339F4F1E0EF1AF10854
:10053000B1F702C080E024C0299860E387E20E94FE
:10054000471414FF03C081EE0E9487140E947414A4
:1005500015FDD1E081E0CF3F09F080E08D2B909137
:10056000F701C9130DC090914703811106C021E026
:10057000290F2F70907F922B01C0907F909347039B
:10058000DF91CF911F91FF90EF9008952091460346
:1005900022FD0C94300280E00895E0913C03F0913C
:1005A0003D03309721F00280F381E02D09940895F6
:1005B0000F931F930E94BF0F00913E0310913F03C2
:1005C0002091400330914103601B710B820B930B10
:1005D0001F910F9108959C0180913C0390913D03E0
:1005E0008217930751F0909146039F7190934603B1
:1005F00030933D0320933C0305C080914603805E09
:1006000080934603E0913C03F0913D03309721F045
:100610000190F081E02D09950E94BF0F60933E0389
:1006200070933F03809340039093410308953F925A
:100630004F925F926F927F928F929F92AF92BF92F2
:10064000CF92DF92EF92FF920F931F93CF93DF939E
:100650008091460384FB332430F884FFE5C20E9476
:10066000BF0F0091F2011091F3012091F40130913C
:10067000F501DC01CB01801B910BA20BB30B813A7E
:100680009B4BAD40B105A0F00E94BF0F6093F201FB
:100690007093F3018093F4019093F50186E00E943A
:1006A00081148332E1F485E00E9481148C34B9F422
:1006B00026E0E22E30E0C32E30E0D32E44244A94CC
:1006C0005524539443E0642E42E0742E87E10E9447
:1006D000811480FDA9C2EA94E11006C0A5C281E0A0
:1006E00091E00E94EB02E4CF21E041E060E070E0A5
:1006F00080E60E941514C82F813220F082EE0E94FD
:100700008714C0E021E04C2F68EF72E081E60E9480
:10071000151460E487E20E9447148091FB02B82E12
:10072000B694B694B69439E13B1510F499E1B92E1C
:1007300082FD03C097E09B0D01C090E29C13C6CFE1
:100740008370823019F61091FC02C091FD02D091A5
:10075000F9020091F802F090FA028091F70108176F
:1007600051F08091F601D81731F08D2F90E0602F75
:1007700003960E944B1917708091470380688093FD
:1007800047038091F601F81242C02091FB02822FAC
:100790008695869586958A3108F089E138E0839FB1
:1007A000C00111242770282B2093FB02EB2DF0E0D1
:1007B000E850FD4F17828091FC0283FF15C091E243
:1007C000E8EFF2E0A7EDB2E001900D929A95E1F723
:1007D000877F80618093DB02F092D802D093D902A8
:1007E00087ED92E00E94C6029091FC0294FF05C042
:1007F00088EF92E00E943E0169CF1330C9F78091E3
:10080000FD0221EF280F233008F06AC05FCF2FEFE1
:10081000F21250C0133009F03FC08091460382FFAE
:100820001EC0C730E1F48091F701D81709F44ECF0C
:100830000E94BF0F00914203109143032091440393
:1008400030914503DC01CB01801B910BA20BB30B54
:1008500080319742A105B10508F4B6C15BC1C8302B
:1008600009F434CFC431C1F48091F701081314C0E6
:100870000E94BF0F7370882799270E943816C09175
:10088000F70125E143E06FEF8D2F0E9434076C2FB5
:100890000E94B6010E9430028091F701081316CF22
:1008A0008091F601D81709F4BBC18091460382FDFF
:1008B000AAC1B6C18091460382FF08CF133069F404
:1008C000C851C23050F40E946B078E3F31F061E096
:1008D000680F88EF92E00E94B60188EF92E090C125
:1008E000C430B1F48091FE0290910001891719F093
:1008F0008F3F09F0EBCE0E946B079FEF980F9E3F52
:1009000018F40E94DD10E2CE8FEF8093F601DECE68
:10091000C830C9F4C0914603C0FFD8CE0E946B070F
:100920008F3F09F4D3CE8F5F8F3F09F4CFCE9091E4
:10093000F801891708F0CACEC1FDC8CE8093F8012E
:10094000D093F701C3CEC83141F429E143E06FEF02
:100950008D2F0E94340761E051C1C93161F480914B
:10096000460383FFB3CE877F809346030E946B07C5
:1009700080934803ABCECE3109F4A8CECD31A9F493
:100980002FE143E06FEF80E00E943407FC01848197
:100990008F7180648483838187708061838380E02A
:1009A0009FEF90878783CF012BC12091F9022111FE
:1009B000ADC08D3059F498E088E10FB6F894A89551
:1009C000809360000FBE90936000FFCF8B3169F47D
:1009D0000E946B0791E0811101C090E080914E036D
:1009E00090FB80F980934E0371CE8630A9F49091EC
:1009F000FF02992329F081E09D3419F080E001C0C5
:100A0000832D80934D0341E050E063E071E08DE47D
:100A100093E00E943B195ACE833119F40E94BB0E19
:100A200055CE8231C1F40E94D8024B015C0126E10F
:100A300043E06FEF80E00E943407FC0184818F71F6
:100A4000806A8483838187708062838387829086B3
:100A5000A186B28615C08230B9F422E043E06FEF80
:100A600080E00E943407FC0184818F71806A848356
:100A70008381877080628383478250866186728615
:100A8000CF010E94C60222CE8130F9F4C114D104F4
:100A900009F41CCE929596959770953049F4609123
:100AA000FF027091000380910103909102030AC03C
:100AB000911105C08FEF92E00E948B1803C060E097
:100AC00070E0CB010E94000001CE8A30D9F4809101
:100AD000FF02833409F0FACDC3E0D0E06FEFCE011E
:100AE0000E944B192196C33091E0D907B9F72AE04B
:100AF00043E06FEF80E00E94340762E671E00E94FD
:100B0000FA01BFCF8C3109F073CEE0CD8A3109F004
:100B10006FCEDCCD8091460383FDD8CD9091F60158
:100B2000911103C01092480326C088608093460349
:100B3000F092480328E143E06FEF80E00E94340721
:100B400061E00E94B6010E9430020E94BF0F4B017B
:100B50005C011092FD02C0E00E94BF0FDC01CB01DE
:100B600088199909AA09BB09803D9740A105B105DB
:100B700010F4CC23D9F080914603877F80934603FD
:100B8000C0914803CF3F09F4A1CD0E94BF0F6093ED
:100B900042037093430380934403909345038091F1
:100BA000F8018C1789F0C093F8010EC00E9417035A
:100BB000A8958091FC028770833071F6C1E0809126
:100BC000FD02893141F6C8CF0E94BF0F60934203F6
:100BD0007093430380934403909345030E94BF0F97
:100BE0007370882799270E943816C091F80128E071
:100BF00043E06FEF8D2F0E9434076C2F0E94B601E7
:100C00000E94300263CD88EF92E00E9430021330E0
:100C100009F45CCD8091F701081709F4E9CD56CDB0
:100C2000133009F0E5CD52CDDF91CF911F910F9197
:100C3000FF90EF90DF90CF90BF90AF909F908F90FC
:100C40007F906F905F904F903F900895CF92DF928A
:100C5000EF92FF920F931F93CF93DF936C017A0172
:100C60008B01C0E0D0E0CE15DF0581F0D8016D9199
:100C70008D01D601ED91FC910190F081E02DC6012E
:100C80000995892B11F02196EECF7E01C701DF91E6
:100C9000CF911F910F91FF90EF90DF90CF9008952B
:100CA000FC01538D448D252F30E0842F90E0821B72
:100CB000930B541710F0CF96089501970895FC01F7
:100CC000918D828D981761F0828DDF01A80FB11D83
:100CD0005D968C91928D9F5F9F73928F90E00895A7
:100CE0008FEF9FEF0895FC01918D828D981731F061
:100CF000828DE80FF11D858D90E008958FEF9FEFB5
:100D00000895FC01918D228D892F90E0805C9F4F8A
:100D1000821B91098F73992708958AEF91E00E94B1
:100D2000810621E0892B09F420E0822F0895FC013F
:100D3000848DDF01A80FB11DA35ABF4F2C91848D64
:100D400090E001968F739927848FA689B7892C9399
:100D5000A089B1898C91837080648C93938D848DEC
:100D6000981306C00288F389E02D80818F7D8083EF
:100D70000895EF92FF920F931F93CF93DF93EC01AF
:100D800081E0888F9B8D8C8D981305C0E889F98947
:100D9000808185FD26C0F62E0B8D10E00F5F1F4F62
:100DA0000F731127E02E8C8DE8120CC00FB607FCD4
:100DB000FACFE889F989808185FFF5CFCE010E94BD
:100DC0009706F1CF8B8DFE01E80FF11DE35AFF4F1F
:100DD000F0829FB7F8940B8FEA89FB89808180624B
:100DE0000AC09FB7F894EE89FF896083E889F98982
:100DF00080818370806480839FBF81E090E0DF9179
:100E0000CF911F910F91FF90EF900895CF93DF93B3
:100E1000EC01888D8823C9F0EA89FB89808185FDF2
:100E200005C0A889B9898C9186FD0FC00FB607FC53
:100E3000F5CF808185FFF2CFA889B9898C9185FF94
:100E4000EDCFCE010E949706E7CFDF91CF910895B5
:100E500080E090E0892B29F00E948D0681110C948E
:100E6000000008950E94EB1AE7EDF2E09091F60180
:100E7000918382836683258384814770807E482B9B
:100E80004483CF010895EAEFF1E0A089B18982E0BF
:100E90008C93A485B5851C92A685B78580E18C933B
:100EA000108EA489B58986E08C93A289B3898C9130
:100EB00080618C93A289B3898C9188608C93A2897C
:100EC000B3898C9180688C930288F389E02D8081AE
:100ED0008F7D808308958091FC028295869587702E
:100EE000813019F48091FF020895811105C08FEFC0
:100EF00092E00E946D18089580E00895CF93DF93EB
:100F0000262F8F3F11F0EA0102C0C5E6D1E040E094
:100F1000682F80E00E943407BE010E94FA01DF9131
:100F2000CF910C94C60223E042E0682F80E00E943B
:100F300034076DE671E00E94FA010C94C602FC01D0
:100F4000808191810C94E417FC014481558160817A
:100F5000718188EB92E00C942606CF92DF92EF929B
:100F6000FF92CF93DF93D82F0E94BF0F6B017C01BC
:100F700081E0D11180E08093FD02C0E00E94BF0FAC
:100F8000DC01CB018C199D09AE09BF09803D97405A
:100F9000A105B10590F4C11110C0A8950E94CD0221
:100FA0000E9417038091FC028770833039F7C1E0FB
:100FB0008091FD028D13E1CFE1CF8C2FDF91CF9196
:100FC000FF90EF90DF90CF9008950F931F93CF93F2
:100FD000DF93EC0188819981009729F02A813B8178
:100FE0002617370788F48B016F5F7F4F0E94251A01
:100FF000009761F0998388831B830A832C813D814C
:10100000232B11F4FC01108281E001C080E0DF910C
:10101000CF911F910F910895EF92FF920F931F931D
:10102000CF93DF936115710511F480E01CC0411569
:101030005105C1F07B01EC018C819D818A01080F73
:10104000191FB801CE010E94E507882371F328819A
:1010500039818C819D81B701820F931F0E94F91AFB
:101060001D830C8381E0DF91CF911F910F91FF9041
:10107000EF900895CF93DF93EC01888199810097D9
:1010800011F00E94E417198218821D821C821B82B3
:101090001A82DF91CF910895CF93DF93EC01FB018A
:1010A00044815581608171810E940C08811103C0C7
:1010B000CE010E943A08CE01DF91CF910895CF93DF
:1010C000DF93EC016115710561F0FB0101900020D7
:1010D000E9F73197AF01461B570B0E940C088111AD
:1010E00003C0CE010E943A08CE01DF91CF9108954E
:1010F000EF92FF920F931F93CF93DF93EC017B014D
:101100008A01BA010E94E507811104C0CE010E9444
:101110003A0807C01D830C83B701888199810E941A
:10112000F91ACE01DF91CF911F910F91FF90EF90AF
:101130000895EF92FF920F931F93CF93DF93CDB754
:10114000DEB762970FB6F894DEBF0FBECDBF8C013D
:10115000CB01F8011182108213821282158214824F
:101160004AE09E012F5F3F4F7901B9010E94D118DB
:10117000F70101900020E9F73197AF014E195F099F
:10118000B701C8010E94780862960FB6F894DEBFD6
:101190000FBECDBFDF91CF911F910F91FF90EF90C8
:1011A0000895EF92FF920F931F93CF93DF93CDB7E4
:1011B000DEB729970FB6F894DEBF0FBECDBF8C0106
:1011C000862FF801118210821382128215821482F6
:1011D0004AE09E012F5F3F4F7901B90190E00E94E4
:1011E000F918F70101900020E9F73197AF014E1986
:1011F0005F09B701C8010E94780829960FB6F894D4
:10120000DEBF0FBECDBFDF91CF911F910F91FF9039
:10121000EF900895FC0111821082138212821582D0
:1012200014826115710551F0FB0101900020E9F76E
:101230003197AF01461B570B0C9478080895EF9235
:10124000FF920F931F93CF93DF938C017B01C0E03C
:10125000D0E0F701EC0FFD1F6491662361F0D80127
:10126000ED91FC910190F081E02DC8010995892B49
:1012700011F02196EECFCE01DF91CF911F910F910A
:10128000FF90EF9008956115710579F0FB010190D1
:101290000020E9F73197AF01461B570BDC01ED91B8
:1012A000FC910280F381E02D099480E090E00895A4
:1012B0008F929F92AF92BF920F931F93CF93DF9322
:1012C000CDB7DEB7A1970FB6F894DEBF0FBECDBF86
:1012D00019A2423008F44AE08E010F5D1F4F842EA0
:1012E000912CA12CB12CA50194010E94B319E62FD9
:1012F000B901CA0101501109EA3014F4E05D01C0DE
:10130000E95CD801EC93232B242B252B61F7B80142
:101310008AEF91E00E944309A1960FB6F894DEBFD0
:101320000FBECDBFDF91CF911F910F91BF90AF90B6
:101330009F908F900895CF93DF93682F70E080E0A7
:1013400090E04AE00E945809EC016BE671E08AEFF8
:1013500091E00E9443098C0F9D1FDF91CF9108956A
:10136000CF92DF92EF92FF92CF93DF936C01990FB0
:10137000EE08FF08F7FE13C06DE28AEF91E00E94CD
:10138000B906EC0166277727CB016C197D098E0918
:101390009F094AE00E945809C80FD91F06C04AE0B9
:1013A000C701B6010E945809EC016BE671E08AEFB3
:1013B00091E00E9443098C0F9D1FDF91CF91FF9018
:1013C000EF90DF90CF900895CF93DF93BC018AEF29
:1013D00091E00E941F09EC016BE671E08AEF91E059
:1013E0000E9443098C0F9D1FDF91CF9108951F929A
:1013F0000F920FB60F9211242F933F934F935F9349
:101400006F937F938F939F93AF93BF93EF93FF93CC
:101410008AEF91E00E949706FF91EF91BF91AF9103
:101420009F918F917F916F915F914F913F912F91FC
:101430000F900FBE0F901F9018951F920F920FB62E
:101440000F9211242F938F939F93EF93FF93E0912B
:101450000A02F0910B028081E0911002F0911102DA
:1014600082FD12C09081809113028F5F8F73209153
:101470001402821751F0E0911302F0E0E650FE4FA3
:10148000958F8093130201C08081FF91EF919F910E
:101490008F912F910F900FBE0F901F90189590E095
:1014A000FC01E652FF4F2491FC01EA5EFE4F3491AD
:1014B000FC01EE5FFE4FE491EE2309F43CC02223D1
:1014C00039F1233091F038F42130A9F0223001F5C0
:1014D00084B58F7D12C0273091F02830A1F02430E0
:1014E000B9F4809180008F7D03C0809180008F7758
:1014F000809380000DC084B58F7784BD09C0809132
:10150000B0008F7703C08091B0008F7D8093B000D2
:10151000F0E0EE0FFF1FE850FF4FA591B4919FB789
:10152000F894611104C08C913095382302C0EC917D
:101530003E2B3C939FBF0895CF93DF9390E0FC0137
:10154000EA5EFE4F2491FC01EE5FFE4F84918823FA
:1015500061F190E0880F991FFC01E053FF4FC591A6
:10156000D491FC01E850FF4FA591B491611109C0DD
:101570009FB7F8948881209582238883EC912E234D
:101580000BC0623061F49FB7F8948881322F309598
:1015900083238883EC912E2B2C939FBF06C08FB79B
:1015A000F894E8812E2B28838FBFDF91CF91089587
:1015B0000895EF92FF920F931F93CF93DF930E94B2
:1015C000BF0F28E833E140E050E00E94B3196538CE
:1015D00073418105910520F080913B03811113C077
:1015E0000E94BF0F28E833E140E050E00E94B319A9
:1015F000643071058105910508F0E8C080913B03D6
:101600008111E4C003C010923B03EACF81E08093D4
:101610003B0367EF71E08AEF91E00E941F09809120
:101620003A030E949B09A89580913A0366E00E94C4
:10163000E419C92F6DEE71E08AEF91E00E941F0955
:101640008C2F0E949B09EC2EF12CF701E45AFE4FDF
:1016500080818E3008F08E508770806480937C008B
:1016600080917A00806480937A0080917A0086FD70
:10167000FCCFA091780080917900B0E08D01182B0B
:1016800065ED71E08AEF91E00E941F09C8010E9498
:10169000B009D8010D3B124014F0ACEBB2E023E6E8
:1016A00030E00E94041A2CEB32E040E050E00E944F
:1016B0005D19D22F022F132F8C2F90E0A0E0B0E005
:1016C0004AE0BC01CD010E94580961EC71E08AEF4B
:1016D00091E00E941F09C8010E94B009F701E15F73
:1016E000FE4FD0838C2F0E94F710F701E75FFE4F6B
:1016F0007F01808190E00817190754F466EA71E0D1
:101700008AEF91E00E941F09F70180810E949B09E6
:1017100080913A03811129C0CC0FC0939D02809122
:101720009B0290919A029770906190939A02109305
:101730009F0200939E029091F6019093980280710F
:10174000896480939B0280914E0380FF09C087E9E2
:1017500092E00E94C602882319F085E991E002C058
:1017600085E891E00E94E40927C0863028F5C81377
:1017700023C085E791E00E94E409CC0FC0939D024D
:1017800080919B0290919A029770906190939A0237
:1017900010939F0200939E029091F60190939802FD
:1017A0008071816480939B0280914E0380FF04C00E
:1017B00087E992E00E94C60280913A038F5F8436E7
:1017C00018F480933A0302C010923A03DF91CF914C
:1017D0001F910F91FF90EF9008958F929F92AF927B
:1017E000BF92CF92DF92EF92FF924B015C010E9479
:1017F000BF0F6B017C010E94BF0FDC01CB018C1974
:101800009D09AE09BF0988159905AA05BB0530F4E5
:10181000A8950E94CD020E941703EDCFFF90EF9094
:10182000DF90CF90BF90AF909F908F9008952BE066
:1018300043E06FEF80E00E94340768E671E00E94A9
:10184000C2010E94C6022CE043E06FEF80E00E94DC
:10185000340764E671E00E94C2010E94C60264E699
:1018600070E080E090E00E94ED0B49E651E063E219
:1018700080E00E947E0764E670E080E090E00E94D5
:10188000ED0B49E651E064E081E00E947E0764E6EA
:1018900070E080E090E00E94ED0B4EE651E063E2E4
:1018A00082E00E947E0764E670E080E090E00E94A3
:1018B000ED0B4EE651E064E083E00E947E0764E6B3
:1018C00070E080E090E00E94ED0B40E751E063E2C1
:1018D00084E00E947E0764E670E080E090E00E9471
:1018E000ED0B40E751E064E085E00E947E0764E68E
:1018F00070E080E090E00E94ED0B42E751E063E28F
:1019000086E00E947E0764E670E080E090E00E943E
:10191000ED0B42E751E064E087E00E947E0764E659
:1019200070E080E090E00E94ED0B44E751E063E25C
:1019300088E00E947E0764E670E080E090E00E940C
:10194000ED0B44E751E064E089E00E947E0764E625
:1019500070E080E090E00E94ED0B46E751E063E22A
:101960008AE00E947E0764E670E080E090E00E94DA
:10197000ED0B46E751E064E08BE00E947E0764E6F1
:1019800070E080E090E00C94ED0BAF92BF92CF92AC
:10199000DF92EF92FF920F931F93CF93DF93CDB718
:1019A000DEB762970FB6F894DEBF0FBECDBF0E94C0
:1019B000430788E591E00E94E4090CE511E042E666
:1019C000E42E41E0F42E60E0F80181918F010E9445
:1019D0009C0A61E070E080E090E00E94ED0BE01670
:1019E000F10689F71092D3021092D2021092D1021E
:1019F0001092D0021092CF021092CE028FE190E0AE
:101A00009093D5028093D4029091C402963108F04D
:101A100058C021E030E03093CF022093CE022DE178
:101A200030E03093D1022093D0022DE030E03093AB
:101A3000D3022093D20240916800983058F031E0F0
:101A40009E3008F430E021E0822F01C0880F3A95E3
:101A5000EAF701C084E0842B80936800983038F066
:101A60009E3040F0963148F020E030E008C02DE68E
:101A700030E005C02BE630E002C02CE630E03093C9
:101A8000CC022093CB02983030F481E001C0880F63
:101A90009A95EAF70EC0292F30E09E3018F42850AE
:101AA000310902C02E50310981E001C0880F2A950A
:101AB000EAF78093CD028091D4029091D5020197EC
:101AC000F1F78091D2029091D302892B49F1E091F4
:101AD0005103F091520382E0E83BF80709F1309797
:101AE00039F0A389B4899C918589809589238C9349
:101AF0008091D6028E7F8093D60210924F0310926F
:101B0000500388EB92E09093520380935103E0914D
:101B1000CB02F091CC0290818091CD02892B808301
:101B20006CED75E080E090E00E94ED0B68E771E0FD
:101B300088EB92E00E94430960E871E088EB92E054
:101B40000E94430965E971E088EB92E00E94430935
:101B50008091460382FF06C062EB71E088EB92E061
:101B60000E9443093CE2C32ED12CE12CF12C8E01C2
:101B7000035F1F4FB601C8010E94990820EFB22EE3
:101B8000BC0C6B2DCE0107960E94D10864EC71E06D
:101B9000CE0101960E940A09BE01695F7F4FCE0106
:101BA00001960E944C086CEC71E00E945F08B8013D
:101BB0000E944C086FE871E00E945F080E94A40731
:101BC000CE0101960E949F07CE0107960E949F07B3
:101BD000C8010E949F076B2DCE0107960E94D10875
:101BE00062ED71E0CE0101960E940A09BE01695FB3
:101BF0007F4FCE0101960E944C086BED71E00E9470
:101C00005F085C014AE0B801C7010E94D118F801E1
:101C100001900020E9F73197AF01401B510BB8014B
:101C2000C5010E940C08811103C0C5010E943A0839
:101C30006FEB71E0C5010E945F080E94A407CE010E
:101C400001960E949F07CE0107960E949F07EFEF23
:101C5000EE1AFE0AF2E1CF0ED11C86E0E816F1047E
:101C600009F088CF6BE671E088EB92E00E944309AF
:101C700064EF71E080E090E00E94ED0B89E0E82ED7
:101C800081E0F82E0DE911E093E2D92EC8010E94FF
:101C90003319F701843610F4808301C0D0826FE4D9
:101CA00071E08AEF91E00E941F09F70181917F01A5
:101CB0000E949B090F5F1F4F033AF1E01F0731F7A6
:101CC0008AE291E00E94E40968E97AE380E090E02A
:101CD0000E94ED0B81E00E94930764E670E080E0D3
:101CE00090E00E94ED0B83E00E94930764E670E0B1
:101CF00080E090E00E94ED0B85E00E94930764E68F
:101D000070E080E090E00E94ED0B87E00E94930776
:101D100064E670E080E090E00E94ED0B89E00E94B4
:101D2000930764E670E080E090E00E94ED0B8BE0AA
:101D30000E94930764E670E080E090E00E94ED0B63
:101D400099E288E10FB6F894A895809360000FBEE1
:101D50009093600062960FB6F894DEBF0FBECDBFC1
:101D6000DF91CF911F910F91FF90EF90DF90CF9077
:101D7000BF90AF900895CF932FE043E06FEF80E0E6
:101D80000E9434076DE671E00E94FA01E7EDF2E08F
:101D9000838187708061838384818F71806C848369
:101DA00081E087831086CF010E94C6028FE00E94E7
:101DB000AD074DE651E062E18FEF0E947E07C091D2
:101DC000F70126E043E06FEF80E00E9434076C2FBC
:101DD0000E94B6010E94C60286E00E94AD07CF9124
:101DE0000C94170CCF9380914E0381FD1FC00E946D
:101DF000BB0E80914E03816080934E03C4E02AE1C4
:101E000043E06FEF80E00E94340762E00E94B60179
:101E10000E94C6028BE10E94AD07811102C0C15031
:101E200071F780914E03826080934E03CF910895A5
:101E3000089520915103309152032817390771F406
:101E40009091500380914F03981741F0E091500317
:101E5000F0E0ED5AFC4F808190E008958FEF9FEF06
:101E6000089508951F93CF93DF93DC015C968D91C5
:101E70009C915D97009739F421E030E013963C93F4
:101E80002E9312973BC05196ED91FC91529750962C
:101E90002C915097322F30951FB75E964C915E97DC
:101EA000742F727041FD6095F8944081772311F092
:101EB000422B01C043234083EC012197F1F748E016
:101EC000508160FF02C0522B01C053235083EC01AC
:101ED0002197F1F76695415099F78081772319F0A2
:101EE0008323808302C0282B20831FBF5C968D91A3
:101EF0009C915D970197F1F781E090E0DF91CF91A0
:101F00001F910895209151033091520328173907EA
:101F100071F480914F032091500390E0805C9F4FBB
:101F2000821B910960E470E00E94F019089580E03E
:101F300090E00895209151033091520328173907FA
:101F4000B9F49091500380914F03981789F0E09174
:101F50005003F0E0ED5AFC4F80812091500330E0B7
:101F60002F5F3F4F2F7333272093500390E0089546
:101F70008FEF9FEF0895089580E090E008952FB7C8
:101F8000F8946091940370919503809196039091D9
:101F900097032FBF08951F920F920FB60F9211242F
:101FA0002F933F938F939F93AF93BF93809194030D
:101FB00090919503A0919603B0919703309193036C
:101FC00023E0230F2D3720F40196A11DB11D05C07C
:101FD00026E8230F0296A11DB11D20939303809341
:101FE000940390939503A0939603B09397038091E5
:101FF000980390919903A0919A03B0919B03019645
:10200000A11DB11D8093980390939903A0939A0307
:10201000B0939B03BF91AF919F918F913F912F916F
:102020000F900FBE0F901F9018951F920F920FB632
:102030000F9211242F933F934F935F936F937F934E
:102040008F939F93AF93BF93EF93FF93E09118010A
:10205000F09119010995FF91EF91BF91AF919F9177
:102060008F917F916F915F914F913F912F910F9041
:102070000FBE0F901F9018951F920F920FB60F92E0
:1020800011242F933F934F935F936F937F938F937D
:102090009F93AF93BF93EF93FF93E0911601F0915D
:1020A00017010995FF91EF91BF91AF919F918F918A
:1020B0007F916F915F914F913F912F910F900FBE44
:1020C0000F901F9018951F920F920FB60F92112428
:1020D0002F933F934F935F936F937F938F939F9330
:1020E000AF93BF93EF93FF93E0915103F0915203AD
:1020F000309709F451C0968DA685B785858591FFE7
:1021000004C09C91892329F447C09C91892309F03C
:1021100043C0A389B4899C918589809589238C9338
:10212000868997890197F1F7608D718DA685B785AE
:10213000558538E020E0CB010197F1F7822F90E040
:1021400095958795282F4C91452309F020683150AB
:1021500091F7868D81FD209580914F0390E0019647
:102160008F73992730915003381749F0A0914F038E
:10217000B0E0AD5ABC4F2C9380934F0303C0868DC3
:102180008160868F828D938D0197F1F7A389B48941
:102190009C918589892B8C93FF91EF91BF91AF9191
:1021A0009F918F917F916F915F914F913F912F916F
:1021B0000F900FBE0F901F901895CF93C82F80934C
:1021C000F6018F3F51F08093150163E082E20E9497
:1021D000471461E081E20E9447140E9474146C2F3E
:1021E00080E090E00E944B1981E0CF9108956F92BA
:1021F0007F928F929F92AF92BF92CF92DF92EF9297
:10220000FF920F931F93CF93DF93CDB7DEB7A497C1
:102210000FB6F894DEBF0FBECDBFF82E82E1F89E58
:10222000802D11242CE1722E780E872D0E949B099F
:1022300018A21F8E1AA219A21CA21BA260E070E0B5
:10224000CE014F960E94E507811105C0CE014F9641
:102250000E943A0808C01CA21BA263E272E08F8DA4
:1022600098A10E94B2180F2D10E0C801815F9E4F07
:102270006C01FC0180818A30B8F461E070E0CE012D
:102280004F960E94E507811105C0CE014F960E942E
:102290003A080AC081E090E09CA38BA361E272E05F
:1022A0008F8D98A10E94B218F6012081075F1E4F02
:1022B000F8018081821748F430E090E0059682179B
:1022C000930734F09DE0692E05C06624639402C034
:1022D0008AE0682E68E072E08AEF91E00E941F09B0
:1022E0008F2D0E949B096FEF71E088EB92E00E94B6
:1022F0001F09662DCE0149960E94D108E72CF12CCA
:102300004701F0E18F0E911CB401CE0143960E946B
:102310009908F601608170E0675E7F4FCE010D96EF
:102320000E9499085701FFEFAF1ABF0AB501CE010D
:1023300001960E94990818861F821A8619861C86A3
:102340001B8669817A816115710531F04D815E814D
:10235000CE0107960E9478086AEC71E0CE010796DC
:102360000E945F08BE01635F7F4F0E944C086AECC9
:1023700071E00E945F08BE016D5E7F4F0E944C08B5
:102380006AEC71E00E945F08BE01675E7F4F0E94A9
:102390004C086DE771E00E945F080E94A407CE011F
:1023A00007960E949F07CE0101960E949F07CE01CB
:1023B0000D960E949F07CE0143960E949F07CE0173
:1023C00049960E949F07B401CE0143960E94990846
:1023D000B501CE010D960E949908F601608170E06A
:1023E000665E7F4FCE0107960E9499086EED71E000
:1023F000CE0101960E940A09BE01695F7F4FCE019E
:1024000001960E944C086AEC71E00E945F08BE01D0
:10241000635F7F4F0E944C086CEC71E00E945F0884
:10242000BE016D5E7F4F0E944C0864EE71E00E9419
:102430005F080E94A407CE0101960E949F07CE016B
:1024400007960E949F07CE010D960E949F07CE011E
:1024500043960E949F07B701625F7F4FCE01499666
:102460000E949908F801608170E0675E7F4FCE019D
:1024700043960E949908B7016D5F7F4FCE010D967C
:102480000E949908F801608170E0675E7F4FCE017D
:1024900007960E94990869EE71E0CE0101960E94AC
:1024A0000A09BE01695F7F4FCE0101960E944C0868
:1024B0006AEC71E00E945F08BE01635F7F4F0E947B
:1024C0004C086AEC71E00E945F08BE016D5E7F4FB0
:1024D0000E944C086AEC71E00E945F08BE01675ED2
:1024E0007F4F0E944C086DEE71E00E945F080E94D1
:1024F000A407CE0101960E949F07CE0107960E9475
:102500009F07CE010D960E949F07CE0143960E9421
:102510009F07CE0149960E949F07662DCE014996DE
:102520000E94D108F6016081CE0143960E94D10835
:102530001E861D86188A1F861A8A198A6F8D78A1B1
:102540006115710531F04BA15CA1CE010D960E9481
:102550007808672DCE0107960E94D10862ED71E0E0
:10256000CE0101960E940A09BE01695F7F4FCE012C
:1025700001960E944C086AEC71E00E945F08BE015F
:10258000635F7F4F0E944C08BE016D5E7F4F0E94CB
:102590004C086AEC71E00E945F08BE01675E7F4FE5
:1025A0000E944C086DE771E00E945F080E94A4073A
:1025B0006BE671E088EB92E00E944309CE01019640
:1025C0000E949F07CE0107960E949F07CE010D969D
:1025D0000E949F07CE0143960E949F07CE01499615
:1025E0000E949F07CE014F960E949F07A4960FB6A8
:1025F000F894DEBF0FBECDBFDF91CF911F910F9139
:10260000FF90EF90DF90CF90BF90AF909F908F9012
:102610007F906F9008958091460384608093460375
:1026200080914703807880934703E0914B03F091BA
:102630004C03309709F009940895809147038F70F7
:102640008B3020F08EE291E00C94EB0208950F9312
:102650001F930E94D802209147032077203729F04A
:1026600000E117E220E030E004C000E61AEE20E0CE
:1026700030E0061717072807390730F485E091E0A6
:102680001F910F910C94EB021F910F91089580916F
:10269000F6018F3F19F086E291E010C00E94D80247
:1026A000613D77408105910558F080914603803661
:1026B00018F482E291E002C081E091E00C94EB0218
:1026C00008950E94D802613D77408105910520F46C
:1026D0008091460381FF08958091F7018F3F41F07B
:1026E000809146038E7F8093460382E291E009C089
:1026F00080914603803618F48EE291E002C081E0BA
:1027000091E00C94EB02809148038F3FA1F00E946E
:10271000BF0F6093420370934303809344039093ED
:102720004503809148039091F80189138093F80143
:102730008AE291E013C00E94D802613D7740810592
:10274000910570F080914603803618F486E291E09E
:1027500005C0877F809346038EE291E00C94EB02E4
:1027600008958FEF80934803E6E4F3E0808188606A
:10277000808328E143E06FEF80E00E94340761E04E
:102780000E94B6010C9430028091F6018F3FB1F4A3
:102790000E94BF0F6F3F19F06093000102C01092BA
:1027A000000123E043E06091000180E00E943407D3
:1027B0006DE671E00E94FA010C9430020895E6E49F
:1027C000F3E08081897F81608083E6EFF1E08FEF25
:1027D0008283818327E043E06FEF0E9434076DE638
:1027E00071E00E94FA010C943002E6E4F3E080818B
:1027F000877F8F7E80831092420310924303109252
:102800004403109245030E94BF0F6093F20170933E
:10281000F3018093F4019093F50144E050E060E00F
:1028200070E086EF91E00C94231991E59CBD91E056
:102830009DBD2A98E3E2F0E03197F1F78EBD0000EC
:102840000DB407FEFDCF8EB5FB019FEF4150C8F0E0
:10285000222361F09EBD00000DB407FEFDCF8EB5B2
:102860006115710599F380833196F0CFDF011196E0
:1028700080818EBD00000DB407FEFDCF8EB5FD0139
:10288000E5CF2A9AE3E2F0E03197F1F70895CF938C
:10289000DF931F92CDB7DEB7698320E041E0BE0130
:1028A0006F5F7F4F0E9415140F90DF91CF910895B5
:1028B00080914703982F9077903759F0982F9295F1
:1028C0009F709F5F97709295907F8F78892B8093F0
:1028D0004703809146038B7F8F7E80934603299820
:1028E0006CE080E20C9447146FE080E20E94471491
:1028F000609115016F3F19F08AE20E944714299AEE
:10290000089521E041E060E070E00C94151420E0AF
:1029100040E060E070E00C941514CF93219A229A65
:1029200029982A9ACFB7F89480919C03811127C0E7
:10293000ECE0F1E08491E0E2F1E09491E82FF0E046
:10294000EE0FFF1FE053FF4FA591B491EC91E923E7
:1029500021F461E08AE00E944F0A61E08AE00E946F
:102960009C0A8CB580618CBD8CB580648CBD61E0A7
:102970008DE00E949C0A61E08BE00E949C0A80919D
:102980009C038F5F80939C03CFBF29986EE080E209
:102990000E9447148BE496E40197F1F763E083E229
:1029A0000E9447146FE584E20E9447146CE485E2BC
:1029B0000E94471463E286E20E94471464E08DE3BC
:1029C0000E9447148DE10E948114843041F063E736
:1029D00080E50E94471464E08DE30E94471486E07E
:1029E0000E948114833209F04AC085E00E9481145C
:1029F0008C3409F044C062E082E20E94471460E037
:102A000081E20E94471463E08CE30E944714CFEFF9
:102A1000C0931D0120E045E06DE171E08BE20E9472
:102A2000151420E045E06DE171E08AE20E94151482
:102A300020E045E06DE171E080E30E94151482EE34
:102A40000E94871481EE0E94871460E787E20E944B
:102A50004714809146038061809346038091F90179
:102A60008E7F8093F9018091F6018F3F69F09FEF8F
:102A7000980F9E3F60F40E94DD10811105C081E037
:102A800091E0CF910C94EB028EE291E0FACFC093EB
:102A9000F601F5CF1F920F920FB60F9211240F90EF
:102AA0000FBE0F901F901895CF93DF93FC011082FB
:102AB00011821282148215821682DC0117968AE135
:102AC000ED0119928A95E9F782E08383DF91CF9136
:102AD0000895CF92DF92EF92FF921092FD01109233
:102AE000FC0198EEC92E93E0D92EE12CF12CC09276
:102AF000FE01D092FF01E0920002F09201028CE30D
:102B000091E09093FB018093FA0185EC90E0909323
:102B100007028093060284EC90E090930902809370
:102B2000080280EC90E090930B0280930A0281EC03
:102B300090E090930D0280930C0282EC90E09093D1
:102B40000F0280930E0286EC90E090931102809326
:102B50001002109213021092140210921502109299
:102B6000160288EF92E00E94541587ED92E00E94D1
:102B700054151092BB021092BA02C092BC02D092BD
:102B8000BD02E092BE02F092BF028EE491E090930B
:102B9000B9028093B8021092CF021092CE02109226
:102BA000D1021092D0021092D3021092D20210924F
:102BB000D5021092D4026091D6026E7F6D7F609331
:102BC000D6026695617081E0682786E00E944F0A10
:102BD00061E086E00E949C0AECE1F1E0E491E09380
:102BE000C802E8E0F1E0E491F0E0EE0FFF1FE850EA
:102BF000FF4F859194919093CA028093C90260E03F
:102C000087E00E949C0A8091D60281FD04C061E0A9
:102C100087E00E944F0A87E08093C402EDE1F1E073
:102C2000E491E093C502E9E0F1E0E491F0E0EE0F19
:102C3000FF1FE251FF4F859194919093C7028093BB
:102C4000C60289E193E00E94541510921F0383E0AD
:102C500080931E0387E992E00E94541510929D0212
:102C600085E280939C02FF90EF90DF90CF900895D3
:102C70008F929F92AF92BF92CF92DF92EF92FF928C
:102C80006B017C010E9472164B015C01C114D104DE
:102C9000E104F104F1F00E947216DC01CB01881905
:102CA0009909AA09BB09883E9340A105B10570F3B3
:102CB00021E0C21AD108E108F10888EE880E83E00D
:102CC000981EA11CB11CC114D104E104F10419F730
:102CD000DDCFFF90EF90DF90CF90BF90AF909F90AF
:102CE0008F9008953FB7F89480919803909199033D
:102CF000A0919A03B0919B0326B5A89B05C02F3FD6
:102D000019F00196A11DB11D3FBFBA2FA92F982F11
:102D10008827820F911DA11DB11DBC01CD0142E08C
:102D2000660F771F881F991F4A95D1F708958EE483
:102D300091E09093B9028093B802809151039091F1
:102D40005203885B924071F4E091CB02F091CC0287
:102D500090818091CD0280958923808310925203C7
:102D6000109251030895789484B5826084BD84B52F
:102D7000816084BD85B5826085BD85B5816085BD76
:102D800080916E00816080936E001092810080912E
:102D900081008260809381008091810081608093B6
:102DA0008100809180008160809380008091B100DB
:102DB00084608093B1008091B00081608093B00006
:102DC00080917A00846080937A0080917A0082609A
:102DD00080937A0080917A00816080937A0080915C
:102DE0007A00806880937A001092C100A89580E0F4
:102DF00090E0892B11F00E9400000E94430780910F
:102E00004E038D7F80934E0341E050E063E071E01C
:102E10008DE493E00E9423196FEF81E090E00E941F
:102E20004B19809147038F788093470310923D039D
:102E300010923C0385E091E00E94EB0282EF9EE05D
:102E400090934C0380934B030E94BF0F6B017C0156
:102E50000E94BF0FDC01CB018C199D09AE09BF098F
:102E600080319742A105B10568F00E94C50CA89574
:102E7000A8950E94CD020E9417030E94D90A0E94C1
:102E80002807F6CF0E94CD020E941703A8958091D3
:102E9000460382FFDDCFE9CF0F931F93CF93DF93DC
:102EA0008230910510F482E090E0E0919F03F09170
:102EB000A00320E030E0A0E0B0E0309719F14081BD
:102EC00051810281138148175907C8F0841795076B
:102ED00069F4109731F012960C93129713961C9385
:102EE00027C000939F031093A00322C02115310532
:102EF00019F04217530718F49A01BD01EF01DF01E1
:102F0000F801DBCF21153105F9F0281B390B2430EE
:102F1000310580F48A819B816115710521F0FB01E7
:102F20009383828304C09093A00380939F03FE0148
:102F3000329644C0FE01E20FF31F81939193225019
:102F40003109398328833AC020919D0330919E0333
:102F5000232B41F4209134013091350130939E03AD
:102F600020939D03209132013091330121153105C9
:102F700041F42DB73EB74091360150913701241BE3
:102F8000350BE0919D03F0919E03E217F307A0F447
:102F90002E1B3F0B2817390778F0AC014E5F5F4FAF
:102FA0002417350748F04E0F5F1F50939E03409340
:102FB0009D038193919302C0E0E0F0E0CF01DF91A7
:102FC000CF911F910F910895CF93DF93009709F44C
:102FD00081C0FC01329713821282A0919F03B091AD
:102FE000A003109781F420813181820F931F2091DB
:102FF0009D0330919E032817390751F5F0939E03E6
:10300000E0939D0367C0ED0120E030E0CE17DF07BD
:1030100040F44A815B819E0141155105F1F0EA01BE
:10302000F5CFD383C28340815181840F951FC81788
:10303000D90759F488819981840F951F029691834D
:1030400080838A819B81938382832115310529F4B2
:10305000F093A003E0939F033DC0E901FB83EA8363
:1030600049915991C40FD51FEC17FD0761F4808178
:103070009181840F951F0296E9019983888382814B
:1030800093819B838A83E0E0F0E012968D919C917E
:103090001397009719F0FD01DC01F7CF8D919C91FA
:1030A00011979D012E5F3F4F820F931F20919D032B
:1030B00030919E032817390769F4309729F410924C
:1030C000A00310929F0302C013821282B0939E034A
:1030D000A0939D03DF91CF910895FC018827992744
:1030E000E89421912032E9F3293010F02E30C8F312
:1030F0002B3241F02D3239F4689404C00E94F1184B
:10310000820F911D219120532A30C0F31EF4909517
:1031100081959F4F08951F93FC0199278827BC0133
:10312000E89411911032E9F3193010F01E30C8F311
:103130001B3251F01D3249F4689406C00E94DC181D
:10314000610F711D811D911D119110531A30B0F343
:103150003EF490958095709561957F4F8F4F9F4F6E
:103160001F910895FB01DC0105900D920020E1F70D
:103170000895FC0105900020E9F7809590958E0F49
:103180009F1F0895FB01DC014150504048F005901D
:103190000D920020C9F701C01D9241505040E0F748
:1031A0000895BB274A3031F4992322F4BDE290956B
:1031B00081959F4F0C94FA18592F482F372F262F9F
:1031C000660F771F881F991F660F771F881F991F2B
:1031D000620F731F841F951F660F771F881F991F2B
:1031E00008957AE0979F902D879F802D910D11244F
:1031F0000895BB27FB015527AA27880F991FAA1FEF
:10320000A41710F0A41B83955051B9F7A05DAA3301
:1032100008F0A95DA193009779F7B111B1931192CC
:10322000CB010C941319DC01FC01672F71917723FA
:10323000E1F7329704C07C916D9370836291AE1771
:10324000BF07C8F30895DC01CB01FC01F999FECF5B
:1032500006C0F2BDE1BDF89A319600B40D9241501E
:103260005040B8F70895F999FECF92BD81BDF89A04
:10327000992780B50895DC01A40FB51F4150504037
:1032800048F0CB01840F951F2E910E944C1941509C
:103290005040D0F70895262FF999FECF92BD81BDF9
:1032A000F89A019700B4021639F01FBA20BD0FB684
:1032B000F894FA9AF99A0FBE0895052E97FB1EF41A
:1032C00000940E94741957FD07D00E94B31907FC9F
:1032D00003D04EF40C947419509540953095219577
:1032E0003F4F4F4F5F4F0895909580957095619532
:1032F0007F4F8F4F9F4F08952F923F924F925F9233
:103300006F927F928F929F92AF92BF92CF92DF92F5
:10331000EF92FF920F931F93CF93DF93CDB7DEB75A
:10332000CA1BDB0B0FB6F894DEBF0FBECDBF0994EE
:103330002A88398848885F846E847D848C849B8445
:10334000AA84B984C884DF80EE80FD800C811B8153
:10335000AA81B981CE0FD11D0FB6F894DEBF0FBE82
:10336000CDBFED010895A1E21A2EAA1BBB1BFD01E2
:103370000DC0AA1FBB1FEE1FFF1FA217B307E40754
:10338000F50720F0A21BB30BE40BF50B661F771FAC
:10339000881F991F1A9469F760957095809590958C
:1033A0009B01AC01BD01CF010895A29FB001B39F65
:1033B000C001A39F700D811D1124911DB29F700D3E
:1033C000811D1124911D0895991B79E004C0991F56
:1033D000961708F0961B881F7A95C9F7809508956F
:1033E00097FB072E16F4009407D077FD09D00E94B2
:1033F0000B1A07FC05D03EF4909581959F4F0895D8
:10340000709561957F4F08950E94D519B7FF089573
:10341000821B930B0895AA1BBB1B51E107C0AA1F77
:10342000BB1FA617B70710F0A61BB70B881F991F65
:103430005A95A9F780959095BC01CD010895EE0F9E
:10344000FF1F0590F491E02D0994A0E0B0E0EBE2BD
:10345000FAE10C948019EC01009721F4CB010E9451
:103460004C17B4C0FC01E60FF71F9C012250310934
:10347000E217F30708F4A8C0D9010D911C91119728
:1034800006171707B0F00530110508F49BC0C801F6
:1034900004978617970708F495C002501109061B78
:1034A000170B019311936D937C93CF010E94E41746
:1034B00089C05B01A01AB10A4C01800E911EA09137
:1034C0009F03B091A003612C712CE12CF12C10977B
:1034D00009F446C08D919C911197A815B905B1F5D5
:1034E0006C0142E0C40ED11CCA14DB0478F14C011B
:1034F0008A189B08640142E0C40ED11C1296BC904D
:1035000012971396AC91B5E0CB16D10440F0B2827D
:10351000A38391828082D9016D937C9309C00E5F51
:103520001F4F800F911FF90191838083EB2DFA2F9C
:10353000E114F10431F0D7011396FC93EE93129746
:1035400041C0F093A003E0939F033CC06816790646
:1035500008F43C017D0112960D90BC91A02DB7CFCF
:1035600080919D0390919E0388169906E1F466165A
:103570007706C8F48091320190913301009741F4AD
:103580008DB79EB74091360150913701841B950B42
:10359000E817F907C8F4F0939E03E0939D03F9013F
:1035A000718360830FC0CB010E944C177C01009790
:1035B00059F0A801BE010E94F01ACE010E94E41742
:1035C000C70104C0CE0102C080E090E0CDB7DEB7F5
:1035D000EEE00C949C1981E090E0F8940C940F1BA1
:1035E000FB01DC0102C001900D9241505040D8F720
:1035F0000895FB01DC0101900D920020E1F7089590
:10360000FB01DC014150504048F001900D92002038
:10361000C9F701C01D9241505040E0F7089511E0F4
:10362000C3E1D1E004C0FE010E941F1A2196C431FB
:08363000D107C9F7F894FFCFA0
:10363800FF58142713F5138D142323232323230161
:103648000203040506FF180F180FFFFFFF00FCE137
:10365800A8A8C4134713B11383130B131D13DF1347
:1036680061130000A103800000000000B9062606CF
:103678005006060781065F06730600000000320F39
:103688002606BC0F310F820F9A0F190F0E0F10115B
:1036980012134F4B00322E332E31000D0A00320028
:1036A8003300340035003600434C522830293B00A3
:1036B800424F584628302C302C3132382C31382C97
:1036C8003135293B00444356313628352C312C50AE
:1036D8006C616E74206865616C74682C20313029C7
:1036E8003B004443563136283131352C312C772C68
:1036F80030293B00424F584628332C002C313234B5
:103708002C00444356313628352C002C4100424FBA
:10371800584628002C37293B00504C28002C3829C3
:023728003B0064
:00000001FF
